{
  "contractName": "BatchVerifier",
  "abi": [
    {
      "anonymous": false,
      "inputs": [
        {
          "indexed": false,
          "internalType": "enum BatchVerifier.SignType",
          "name": "typ",
          "type": "uint8"
        },
        {
          "indexed": false,
          "internalType": "bytes32",
          "name": "message",
          "type": "bytes32"
        },
        {
          "indexed": false,
          "internalType": "address[]",
          "name": "signOrder",
          "type": "address[]"
        }
      ],
      "name": "Sign",
      "type": "event"
    },
    {
      "inputs": [
        {
          "internalType": "string",
          "name": "ipAddr",
          "type": "string"
        },
        {
          "internalType": "string",
          "name": "identity",
          "type": "string"
        },
        {
          "internalType": "uint256[2]",
          "name": "pubKey",
          "type": "uint256[2]"
        }
      ],
      "name": "register",
      "outputs": [],
      "stateMutability": "payable",
      "type": "function",
      "payable": true
    },
    {
      "inputs": [
        {
          "internalType": "enum BatchVerifier.SignType",
          "name": "typ",
          "type": "uint8"
        },
        {
          "internalType": "bytes32",
          "name": "_message",
          "type": "bytes32"
        },
        {
          "internalType": "uint256[]",
          "name": "signOrder",
          "type": "uint256[]"
        }
      ],
      "name": "requestSign",
      "outputs": [],
      "stateMutability": "payable",
      "type": "function",
      "payable": true
    },
    {
      "inputs": [
        {
          "internalType": "uint256[4]",
          "name": "masterPubKey",
          "type": "uint256[4]"
        },
        {
          "internalType": "uint256[2][]",
          "name": "signatures",
          "type": "uint256[2][]"
        },
        {
          "internalType": "uint256[4][]",
          "name": "setOfR",
          "type": "uint256[4][]"
        }
      ],
      "name": "submitNotBatch",
      "outputs": [],
      "stateMutability": "payable",
      "type": "function",
      "payable": true
    },
    {
      "inputs": [
        {
          "internalType": "uint256[4]",
          "name": "masterPubKey",
          "type": "uint256[4]"
        },
        {
          "internalType": "uint256[2][]",
          "name": "signatures",
          "type": "uint256[2][]"
        },
        {
          "internalType": "uint256[4][]",
          "name": "setOfR",
          "type": "uint256[4][]"
        }
      ],
      "name": "submitBatch1",
      "outputs": [],
      "stateMutability": "payable",
      "type": "function",
      "payable": true
    },
    {
      "inputs": [],
      "name": "submitBatch2",
      "outputs": [],
      "stateMutability": "payable",
      "type": "function",
      "payable": true
    }
  ],
  "bytecode": "0x608060405234801561001057600080fd5b50611050806100206000396000f3fe60806040526004361061004a5760003560e01c806314b0845b1461004f578063500ea6dd1461006b5780637260d49614610075578063d55bef0d14610091578063f7ab32dd146100ad575b600080fd5b610069600480360381019061006491906105c7565b6100c9565b005b6100736101d7565b005b61008f600480360381019061008a9190610709565b6101d9565b005b6100ab60048036038101906100a69190610816565b610258565b005b6100c760048036038101906100c29190610709565b610499565b005b60005b8282905081101561018b576002600182815481106100ed576100ec6108ab565b5b9060005260206000200160009054906101000a900473ffffffffffffffffffffffffffffffffffffffff169080600181540180825580915050600190039060005260206000200160009091909190916101000a81548173ffffffffffffffffffffffffffffffffffffffff021916908373ffffffffffffffffffffffffffffffffffffffff160217905550808061018390610913565b9150506100cc565b50826003819055507fe61643f97fc9c5788b5a2f6bd92fa52f4bd9edddb496947f35113e51f3089b1f8460035460026040516101c993929190610b37565b60405180910390a150505050565b565b60005b848490508110156102505760044244336040516020016101fe93929190610bde565b6040516020818303038152906040528051906020012060001c9080600181540180825580915050600190039060005260206000200160009091909190915055808061024890610913565b9150506101dc565b505050505050565b3373ffffffffffffffffffffffffffffffffffffffff166000803373ffffffffffffffffffffffffffffffffffffffff1673ffffffffffffffffffffffffffffffffffffffff16815260200190815260200160002060000160009054906101000a900473ffffffffffffffffffffffffffffffffffffffff1673ffffffffffffffffffffffffffffffffffffffff1603610327576040517f08c379a000000000000000000000000000000000000000000000000000000000815260040161031e90610c78565b60405180910390fd5b6000838390500361036d576040517f08c379a000000000000000000000000000000000000000000000000000000000815260040161036490610ce4565b60405180910390fd5b60008060003373ffffffffffffffffffffffffffffffffffffffff1673ffffffffffffffffffffffffffffffffffffffff1681526020019081526020016000209050338160000160006101000a81548173ffffffffffffffffffffffffffffffffffffffff021916908373ffffffffffffffffffffffffffffffffffffffff1602179055508585826001019182610405929190610f4a565b508383826002019182610419929190610f4a565b50818160030190600261042d9291906104a0565b506001339080600181540180825580915050600190039060005260206000200160009091909190916101000a81548173ffffffffffffffffffffffffffffffffffffffff021916908373ffffffffffffffffffffffffffffffffffffffff160217905550505050505050565b5050505050565b82600281019282156104cf579160200282015b828111156104ce5782358255916020019190600101906104b3565b5b5090506104dc91906104e0565b5090565b5b808211156104f95760008160009055506001016104e1565b5090565b600080fd5b600080fd5b6003811061051457600080fd5b50565b60008135905061052681610507565b92915050565b6000819050919050565b61053f8161052c565b811461054a57600080fd5b50565b60008135905061055c81610536565b92915050565b600080fd5b600080fd5b600080fd5b60008083601f84011261058757610586610562565b5b8235905067ffffffffffffffff8111156105a4576105a3610567565b5b6020830191508360208202830111156105c0576105bf61056c565b5b9250929050565b600080600080606085870312156105e1576105e06104fd565b5b60006105ef87828801610517565b94505060206106008782880161054d565b935050604085013567ffffffffffffffff81111561062157610620610502565b5b61062d87828801610571565b925092505092959194509250565b6000819050826020600402820111156106575761065661056c565b5b92915050565b60008083601f84011261067357610672610562565b5b8235905067ffffffffffffffff8111156106905761068f610567565b5b6020830191508360408202830111156106ac576106ab61056c565b5b9250929050565b60008083601f8401126106c9576106c8610562565b5b8235905067ffffffffffffffff8111156106e6576106e5610567565b5b6020830191508360808202830111156107025761070161056c565b5b9250929050565b600080600080600060c08688031215610725576107246104fd565b5b60006107338882890161063b565b955050608086013567ffffffffffffffff81111561075457610753610502565b5b6107608882890161065d565b945094505060a086013567ffffffffffffffff81111561078357610782610502565b5b61078f888289016106b3565b92509250509295509295909350565b60008083601f8401126107b4576107b3610562565b5b8235905067ffffffffffffffff8111156107d1576107d0610567565b5b6020830191508360018202830111156107ed576107ec61056c565b5b9250929050565b6000819050826020600202820111156108105761080f61056c565b5b92915050565b600080600080600060808688031215610832576108316104fd565b5b600086013567ffffffffffffffff8111156108505761084f610502565b5b61085c8882890161079e565b9550955050602086013567ffffffffffffffff81111561087f5761087e610502565b5b61088b8882890161079e565b9350935050604061089e888289016107f4565b9150509295509295909350565b7f4e487b7100000000000000000000000000000000000000000000000000000000600052603260045260246000fd5b7f4e487b7100000000000000000000000000000000000000000000000000000000600052601160045260246000fd5b6000819050919050565b600061091e82610909565b91507fffffffffffffffffffffffffffffffffffffffffffffffffffffffffffffffff82036109505761094f6108da565b5b600182019050919050565b7f4e487b7100000000000000000000000000000000000000000000000000000000600052602160045260246000fd5b6003811061099b5761099a61095b565b5b50565b60008190506109ac8261098a565b919050565b60006109bc8261099e565b9050919050565b6109cc816109b1565b82525050565b6109db8161052c565b82525050565b600081549050919050565b600082825260208201905092915050565b60008190508160005260206000209050919050565b600073ffffffffffffffffffffffffffffffffffffffff82169050919050565b6000610a3d82610a12565b9050919050565b610a4d81610a32565b82525050565b6000610a5f8383610a44565b60208301905092915050565b60008160001c9050919050565b600073ffffffffffffffffffffffffffffffffffffffff82169050919050565b6000610aab610aa683610a6b565b610a78565b9050919050565b6000610abe8254610a98565b9050919050565b6000600182019050919050565b6000610add826109e1565b610ae781856109ec565b9350610af2836109fd565b8060005b83811015610b2a57610b0782610ab2565b610b118882610a53565b9750610b1c83610ac5565b925050600181019050610af6565b5085935050505092915050565b6000606082019050610b4c60008301866109c3565b610b5960208301856109d2565b8181036040830152610b6b8184610ad2565b9050949350505050565b6000819050919050565b610b90610b8b82610909565b610b75565b82525050565b60008160601b9050919050565b6000610bae82610b96565b9050919050565b6000610bc082610ba3565b9050919050565b610bd8610bd382610a32565b610bb5565b82525050565b6000610bea8286610b7f565b602082019150610bfa8285610b7f565b602082019150610c0a8284610bc7565b601482019150819050949350505050565b600082825260208201905092915050565b7f616c726561647900000000000000000000000000000000000000000000000000600082015250565b6000610c62600783610c1b565b9150610c6d82610c2c565b602082019050919050565b60006020820190508181036000830152610c9181610c55565b9050919050565b7f656d707479206964656e74697479000000000000000000000000000000000000600082015250565b6000610cce600e83610c1b565b9150610cd982610c98565b602082019050919050565b60006020820190508181036000830152610cfd81610cc1565b9050919050565b600082905092915050565b7f4e487b7100000000000000000000000000000000000000000000000000000000600052604160045260246000fd5b7f4e487b7100000000000000000000000000000000000000000000000000000000600052602260045260246000fd5b60006002820490506001821680610d8557607f821691505b602082108103610d9857610d97610d3e565b5b50919050565b60008190508160005260206000209050919050565b60006020601f8301049050919050565b600082821b905092915050565b600060088302610e007fffffffffffffffffffffffffffffffffffffffffffffffffffffffffffffffff82610dc3565b610e0a8683610dc3565b95508019841693508086168417925050509392505050565b6000819050919050565b6000610e47610e42610e3d84610909565b610e22565b610909565b9050919050565b6000819050919050565b610e6183610e2c565b610e75610e6d82610e4e565b848454610dd0565b825550505050565b600090565b610e8a610e7d565b610e95818484610e58565b505050565b5b81811015610eb957610eae600082610e82565b600181019050610e9b565b5050565b601f821115610efe57610ecf81610d9e565b610ed884610db3565b81016020851015610ee7578190505b610efb610ef385610db3565b830182610e9a565b50505b505050565b600082821c905092915050565b6000610f2160001984600802610f03565b1980831691505092915050565b6000610f3a8383610f10565b9150826002028217905092915050565b610f548383610d04565b67ffffffffffffffff811115610f6d57610f6c610d0f565b5b610f778254610d6d565b610f82828285610ebd565b6000601f831160018114610fb15760008415610f9f578287013590505b610fa98582610f2e565b865550611011565b601f198416610fbf86610d9e565b60005b82811015610fe757848901358255600182019150602085019450602081019050610fc2565b868310156110045784890135611000601f891682610f10565b8355505b6001600288020188555050505b5050505050505056fea264697066735822122093c249e335890573be79e52b60668c5955db801f4f2b8508d9f6451768e7fc0b64736f6c63430008130033",
  "immutableReferences": {},
  "source": "// SPDX-License-Identifier: MIT \npragma solidity ^0.8.19;\n\nimport \"./crypto/BN256G1.sol\";\n\ncontract BatchVerifier {\n\t\n    struct Signer {\n        address addr;      // eth address\n        string ipAddr;     // IP\n        string identity;   // identity\n\t\tuint256[2] pubKey;  // H(identity), H: string -> G1 point\n    }\n\n\tmapping (address => Signer) private SignerMap;\n\n\taddress[] private SignerArr;\n\n\taddress[] private SignOrder;\n\n\tbytes32 private message;\n\n\tuint256[] private randoms;\n\n\tenum SignType { NOTBATCH, BATCH1, BATCH2 }\n\n\tevent Sign(SignType typ, bytes32 message, address[] signOrder);\n\n\tuint256 private constant G2_NEG_X_RE =\n        0x198E9393920D483A7260BFB731FB5D25F1AA493335A9E71297E485B7AEF312C2;\n    uint256 private constant G2_NEG_X_IM =\n        0x1800DEEF121F1E76426A00665E5C4479674322D4F75EDADD46DEBD5CD992F6ED;\n    uint256 private constant G2_NEG_Y_RE =\n        0x275dc4a288d1afb3cbb1ac09187524c7db36395df7be3b99e673b13a075a65ec;\n    uint256 private constant G2_NEG_Y_IM =\n        0x1d9befcd05a5323e6da4d435f3b617cdb3af83285c2df711ef39c01571827f9d;\n\n\n// --------------------------------------------------------------------------------------------------------------------------------------------------------\n\n\n\tfunction register(string calldata ipAddr, string calldata identity, uint256[2] calldata pubKey) \n\t\texternal\n\t\tpayable\n\t{\n\t\trequire(SignerMap[msg.sender].addr != msg.sender, \"already\");\n\t\trequire(bytes(identity).length != 0, \"empty identity\");\n\t\tSigner storage signer = SignerMap[msg.sender];\n\t\tsigner.addr = msg.sender;\n\t\tsigner.ipAddr = ipAddr;\n\t\tsigner.identity = identity;\n\t\tsigner.pubKey = pubKey;\n\t\tSignerArr.push(msg.sender);\n\t}\n\n\tfunction requestSign(SignType typ, bytes32 _message, uint[] calldata signOrder) \n\t\texternal\n\t\tpayable\n\t{\n\t\tfor(uint i = 0; i < signOrder.length; i++){\n\t\t\tSignOrder.push(SignerArr[i]);\n\t\t}\n\t\tmessage = _message;\n\t\temit Sign(typ, message, SignOrder);\n\t}\n\n\tfunction submitNotBatch(uint256[4] calldata masterPubKey, uint256[2][] calldata signatures, uint256[4][] calldata setOfR)\n\t\texternal\n\t\tpayable\n\t{\n\n\t}\n\n\tfunction submitBatch1(uint256[4] calldata masterPubKey, uint256[2][] calldata signatures, uint256[4][] calldata setOfR)\n\t\texternal\n\t\tpayable\n\t{\n\t\tfor(uint i = 0; i < signatures.length; i++){\n\t\t\trandoms.push(uint256(keccak256(abi.encodePacked(block.timestamp, block.prevrandao, msg.sender))));\n\t\t}\n\t}\n\n\tfunction submitBatch2()\n\t\texternal\n\t\tpayable\n\t{\n\n\t}\n}\n",
  "sourcePath": "/home/w1tness/Code/Crypto/batch-verify-IBE-system/batchverifier/contracts/BatchVerifier.sol",
  "compiler": {
    "name": "solc",
    "version": "0.8.19+commit.7dd6d404.Emscripten.clang"
  },
  "schemaVersion": "3.4.16",
  "updatedAt": "2023-12-26T04:53:18.049Z",
  "networkType": "ethereum",
  "devdoc": {
    "kind": "dev",
    "methods": {},
    "version": 1
  },
  "userdoc": {
    "kind": "user",
    "methods": {},
    "version": 1
  }
}