{
  "contractName": "BatchVerifier",
  "abi": [
    {
      "anonymous": false,
      "inputs": [
        {
          "indexed": false,
          "internalType": "enum BatchVerifier.SignType",
          "name": "typ",
          "type": "uint8"
        },
        {
          "indexed": false,
          "internalType": "bytes32",
          "name": "message",
          "type": "bytes32"
        },
        {
          "indexed": false,
          "internalType": "address[]",
          "name": "signOrder",
          "type": "address[]"
        }
      ],
      "name": "Sign",
      "type": "event"
    },
    {
      "inputs": [
        {
          "internalType": "string",
          "name": "ipAddr",
          "type": "string"
        },
        {
          "internalType": "string",
          "name": "identity",
          "type": "string"
        },
        {
          "internalType": "uint256[2]",
          "name": "pubKey",
          "type": "uint256[2]"
        }
      ],
      "name": "register",
      "outputs": [],
      "stateMutability": "payable",
      "type": "function",
      "payable": true
    },
    {
      "inputs": [
        {
          "internalType": "enum BatchVerifier.SignType",
          "name": "typ",
          "type": "uint8"
        },
        {
          "internalType": "bytes32",
          "name": "_message",
          "type": "bytes32"
        },
        {
          "internalType": "uint256[]",
          "name": "signOrder",
          "type": "uint256[]"
        }
      ],
      "name": "requestSign",
      "outputs": [],
      "stateMutability": "payable",
      "type": "function",
      "payable": true
    },
    {
      "inputs": [
        {
          "internalType": "uint256[4]",
          "name": "masterPubKey",
          "type": "uint256[4]"
        },
        {
          "internalType": "uint256[2][]",
          "name": "signatures",
          "type": "uint256[2][]"
        },
        {
          "internalType": "uint256[4][]",
          "name": "setOfR",
          "type": "uint256[4][]"
        }
      ],
      "name": "submitNotBatch",
      "outputs": [],
      "stateMutability": "payable",
      "type": "function",
      "payable": true
    },
    {
      "inputs": [
        {
          "internalType": "uint256[4]",
          "name": "masterPubKey",
          "type": "uint256[4]"
        },
        {
          "internalType": "uint256[2][]",
          "name": "signatures",
          "type": "uint256[2][]"
        },
        {
          "internalType": "uint256[4][]",
          "name": "setOfR",
          "type": "uint256[4][]"
        }
      ],
      "name": "submitBatch1",
      "outputs": [],
      "stateMutability": "payable",
      "type": "function",
      "payable": true
    },
    {
      "inputs": [],
      "name": "submitBatch2",
      "outputs": [],
      "stateMutability": "payable",
      "type": "function",
      "payable": true
    },
    {
      "inputs": [
        {
          "internalType": "address",
          "name": "addr",
          "type": "address"
        }
      ],
      "name": "getSignerByAddress",
      "outputs": [
        {
          "components": [
            {
              "internalType": "address",
              "name": "addr",
              "type": "address"
            },
            {
              "internalType": "string",
              "name": "ipAddr",
              "type": "string"
            },
            {
              "internalType": "string",
              "name": "identity",
              "type": "string"
            },
            {
              "internalType": "uint256[2]",
              "name": "pubKey",
              "type": "uint256[2]"
            }
          ],
          "internalType": "struct BatchVerifier.Signer",
          "name": "",
          "type": "tuple"
        }
      ],
      "stateMutability": "view",
      "type": "function",
      "constant": true
    },
    {
      "inputs": [
        {
          "internalType": "address",
          "name": "addr",
          "type": "address"
        }
      ],
      "name": "getSignerPubkeyByAddress",
      "outputs": [
        {
          "internalType": "uint256[2]",
          "name": "",
          "type": "uint256[2]"
        }
      ],
      "stateMutability": "view",
      "type": "function",
      "constant": true
    }
  ],
  "bytecode": "0x608060405234801561001057600080fd5b50612af6806100206000396000f3fe6080604052600436106100705760003560e01c8063c50bafcc1161004e578063c50bafcc146100b7578063d55bef0d146100f4578063d999dc7914610110578063f7ab32dd1461014d57610070565b806314b0845b14610075578063500ea6dd146100915780637260d4961461009b575b600080fd5b61008f600480360381019061008a9190611929565b610169565b005b610099610277565b005b6100b560048036038101906100b09190611a6b565b610279565b005b3480156100c357600080fd5b506100de60048036038101906100d99190611b5e565b610f9c565b6040516100eb9190611d49565b60405180910390f35b61010e60048036038101906101099190611de3565b6111b3565b005b34801561011c57600080fd5b5061013760048036038101906101329190611b5e565b6113f4565b6040516101449190611eda565b60405180910390f35b61016760048036038101906101629190611a6b565b611480565b005b60005b8282905081101561022b5760026001828154811061018d5761018c611ef5565b5b9060005260206000200160009054906101000a900473ffffffffffffffffffffffffffffffffffffffff169080600181540180825580915050600190039060005260206000200160009091909190916101000a81548173ffffffffffffffffffffffffffffffffffffffff021916908373ffffffffffffffffffffffffffffffffffffffff160217905550808061022390611f53565b91505061016c565b50826003819055507fe61643f97fc9c5788b5a2f6bd92fa52f4bd9edddb496947f35113e51f3089b1f84600354600260405161026993929190612136565b60405180910390a150505050565b565b83839050600280549050146102c3576040517f08c379a00000000000000000000000000000000000000000000000000000000081526004016102ba906121d1565b60405180910390fd5b60005b848490508110156103525760048585838181106102e6576102e5611ef5565b5b905060400201443360405160200161030093929190612273565b6040516020818303038152906040528051906020012060001c9080600181540180825580915050600190039060005260206000200160009091909190915055808061034a90611f53565b9150506102c6565b5060008060005b868690508110156104565760008061040860405180606001604052808b8b8781811061038857610387611ef5565b5b9050604002016000600281106103a1576103a0611ef5565b5b602002013581526020018b8b878181106103be576103bd611ef5565b5b9050604002016001600281106103d7576103d6611ef5565b5b60200201358152602001600486815481106103f5576103f4611ef5565b5b9060005260206000200154815250611487565b8092508193505050610439604051806080016040528087815260200186815260200184815260200183815250611521565b80955081965050505050808061044e90611f53565b915050610359565b5060008060005b6002805490508110156105d55760006104b36002838154811061048357610482611ef5565b5b9060005260206000200160009054906101000a900473ffffffffffffffffffffffffffffffffffffffff166113f4565b90506105266040518060600160405280836000600281106104d7576104d6611ef5565b5b60200201518152602001836001600281106104f5576104f4611ef5565b5b602002015181526020016004858154811061051357610512611ef5565b5b9060005260206000200154815250611487565b8260006002811061053a57610539611ef5565b5b602002018360016002811061055257610551611ef5565b5b60200201828152508281525050506105b960405180608001604052808681526020018581526020018360006002811061058e5761058d611ef5565b5b60200201518152602001836001600281106105ac576105ab611ef5565b5b6020020151815250611521565b80945081955050505080806105cd90611f53565b91505061045d565b506000806106906040518060600160405280600181526020017f8fb501e34aa387f9aa6fecb86184dc21ee5b88d120b5b59e185cac6c5e0896658152602001600260035460405160200161062991906122d1565b6040516020818303038152906040526040516106459190612333565b602060405180830381855afa158015610662573d6000803e3d6000fd5b5050506040513d601f19601f82011682018060405250810190610685919061235f565b60001c815250611487565b80925081935050506106a06116a2565b6106e2604051806060016040528085815260200184815260200160046000815481106106cf576106ce611ef5565b5b9060005260206000200154815250611487565b826000600281106106f6576106f5611ef5565b5b602002018360016002811061070e5761070d611ef5565b5b602002018281525082815250505060058190806001815401808255809150506001900390600052602060002090600202016000909190919091509060026107569291906116c4565b506000600190505b6002805490508110156109ab5760008060006003548f8f600187610782919061238c565b81811061079257610791611ef5565b5b9050604002016000600281106107ab576107aa611ef5565b5b60200201356040516020016107c19291906123c0565b6040516020818303038152906040529050808f8f6001876107e2919061238c565b8181106107f2576107f1611ef5565b5b90506040020160016002811061080b5761080a611ef5565b5b60200201356040516020016108219291906123ec565b604051602081830303815290604052905060006002826040516108449190612333565b602060405180830381855afa158015610861573d6000803e3d6000fd5b5050506040513d601f19601f82011682018060405250810190610884919061235f565b90506108cd6040518060600160405280600181526020017f8fb501e34aa387f9aa6fecb86184dc21ee5b88d120b5b59e185cac6c5e08966581526020018360001c815250611487565b80945081955050506108dd6116a2565b61091e60405180606001604052808781526020018681526020016004898154811061090b5761090a611ef5565b5b9060005260206000200154815250611487565b8260006002811061093257610931611ef5565b5b602002018360016002811061094a57610949611ef5565b5b602002018281525082815250505060058190806001815401808255809150506001900390600052602060002090600202016000909190919091509060026109929291906116c4565b50505050505080806109a390611f53565b91505061075e565b506006879080600181540180825580915050600190039060005260206000200160009091909190915055600686908060018154018082558091505060019003906000526020600020016000909190919091505560067f198e9393920d483a7260bfb731fb5d25f1aa493335a9e71297e485b7aef312c2908060018154018082558091505060019003906000526020600020016000909190919091505560067f1800deef121f1e76426a00665e5c4479674322d4f75edadd46debd5cd992f6ed908060018154018082558091505060019003906000526020600020016000909190919091505560067f275dc4a288d1afb3cbb1ac09187524c7db36395df7be3b99e673b13a075a65ec908060018154018082558091505060019003906000526020600020016000909190919091505560067f1d9befcd05a5323e6da4d435f3b617cdb3af83285c2df711ef39c01571827f9d90806001815401808255809150506001900390600052602060002001600090919091909150556006859080600181540180825580915050600190039060005260206000200160009091909190915055600684908060018154018082558091505060019003906000526020600020016000909190919091505560068c600060048110610b8a57610b89611ef5565b5b6020020135908060018154018082558091505060019003906000526020600020016000909190919091505560068c600160048110610bcb57610bca611ef5565b5b6020020135908060018154018082558091505060019003906000526020600020016000909190919091505560068c600260048110610c0c57610c0b611ef5565b5b6020020135908060018154018082558091505060019003906000526020600020016000909190919091505560068c600360048110610c4d57610c4c611ef5565b5b6020020135908060018154018082558091505060019003906000526020600020016000909190919091505560005b600280549050811015610ebd57600660058281548110610c9e57610c9d611ef5565b5b9060005260206000209060020201600060028110610cbf57610cbe611ef5565b5b01549080600181540180825580915050600190039060005260206000200160009091909190915055600660058281548110610cfd57610cfc611ef5565b5b9060005260206000209060020201600160028110610d1e57610d1d611ef5565b5b0154908060018154018082558091505060019003906000526020600020016000909190919091505560068a8a83818110610d5b57610d5a611ef5565b5b905060800201600060048110610d7457610d73611ef5565b5b6020020135908060018154018082558091505060019003906000526020600020016000909190919091505560068a8a83818110610db457610db3611ef5565b5b905060800201600160048110610dcd57610dcc611ef5565b5b6020020135908060018154018082558091505060019003906000526020600020016000909190919091505560068a8a83818110610e0d57610e0c611ef5565b5b905060800201600260048110610e2657610e25611ef5565b5b6020020135908060018154018082558091505060019003906000526020600020016000909190919091505560068a8a83818110610e6657610e65611ef5565b5b905060800201600360048110610e7f57610e7e611ef5565b5b602002013590806001815401808255809150506001900390600052602060002001600090919091909150558080610eb590611f53565b915050610c7b565b50610f176006805480602002602001604051908101604052809291908181526020018280548015610f0d57602002820191906000526020600020905b815481526020019060010190808311610ef9575b50505050506115bb565b610f56576040517f08c379a0000000000000000000000000000000000000000000000000000000008152600401610f4d90612460565b60405180910390fd5b60026000610f649190611704565b60046000610f729190611725565b60056000610f809190611746565b60066000610f8e9190611725565b505050505050505050505050565b610fa461176a565b6000808373ffffffffffffffffffffffffffffffffffffffff1673ffffffffffffffffffffffffffffffffffffffff1681526020019081526020016000206040518060800160405290816000820160009054906101000a900473ffffffffffffffffffffffffffffffffffffffff1673ffffffffffffffffffffffffffffffffffffffff1673ffffffffffffffffffffffffffffffffffffffff168152602001600182018054611053906124af565b80601f016020809104026020016040519081016040528092919081815260200182805461107f906124af565b80156110cc5780601f106110a1576101008083540402835291602001916110cc565b820191906000526020600020905b8154815290600101906020018083116110af57829003601f168201915b505050505081526020016002820180546110e5906124af565b80601f0160208091040260200160405190810160405280929190818152602001828054611111906124af565b801561115e5780601f106111335761010080835404028352916020019161115e565b820191906000526020600020905b81548152906001019060200180831161114157829003601f168201915b50505050508152602001600382016002806020026040519081016040528092919082600280156111a3576020028201915b81548152602001906001019080831161118f575b5050505050815250509050919050565b3373ffffffffffffffffffffffffffffffffffffffff166000803373ffffffffffffffffffffffffffffffffffffffff1673ffffffffffffffffffffffffffffffffffffffff16815260200190815260200160002060000160009054906101000a900473ffffffffffffffffffffffffffffffffffffffff1673ffffffffffffffffffffffffffffffffffffffff1603611282576040517f08c379a00000000000000000000000000000000000000000000000000000000081526004016112799061252c565b60405180910390fd5b600083839050036112c8576040517f08c379a00000000000000000000000000000000000000000000000000000000081526004016112bf90612598565b60405180910390fd5b60008060003373ffffffffffffffffffffffffffffffffffffffff1673ffffffffffffffffffffffffffffffffffffffff1681526020019081526020016000209050338160000160006101000a81548173ffffffffffffffffffffffffffffffffffffffff021916908373ffffffffffffffffffffffffffffffffffffffff160217905550858582600101918261136092919061279e565b50838382600201918261137492919061279e565b5081816003019060026113889291906117ae565b506001339080600181540180825580915050600190039060005260206000200160009091909190916101000a81548173ffffffffffffffffffffffffffffffffffffffff021916908373ffffffffffffffffffffffffffffffffffffffff160217905550505050505050565b6113fc6116a2565b6000808373ffffffffffffffffffffffffffffffffffffffff1673ffffffffffffffffffffffffffffffffffffffff168152602001908152602001600020600301600280602002604051908101604052809291908260028015611474576020028201915b815481526020019060010190808311611460575b50505050509050919050565b5050505050565b60008060006114946116a2565b60408160608760006007600019f19150816114e4576040517f08c379a00000000000000000000000000000000000000000000000000000000081526004016114db906128ba565b60405180910390fd5b806000600281106114f8576114f7611ef5565b5b60200201518160016002811061151157611510611ef5565b5b6020020151935093505050915091565b600080600061152e6116a2565b60408160808760006006600019f191508161157e576040517f08c379a000000000000000000000000000000000000000000000000000000000815260040161157590612926565b60405180910390fd5b8060006002811061159257611591611ef5565b5b6020020151816001600281106115ab576115aa611ef5565b5b6020020151935093505050915091565b60006115c56117ee565b600080600685516115d69190612975565b14611616576040517f08c379a000000000000000000000000000000000000000000000000000000000815260040161160d906129f2565b60405180910390fd5b6000602085516116269190612a12565b90506020838260208801600060086107d05a03f191508161167c576040517f08c379a000000000000000000000000000000000000000000000000000000000815260040161167390612aa0565b60405180910390fd5b60018360006001811061169257611691611ef5565b5b6020020151149350505050919050565b6040518060400160405280600290602082028036833780820191505090505090565b82600281019282156116f3579160200282015b828111156116f25782518255916020019190600101906116d7565b5b5090506117009190611810565b5090565b50805460008255906000526020600020908101906117229190611810565b50565b50805460008255906000526020600020908101906117439190611810565b50565b5080546000825560020290600052602060002090810190611767919061182d565b50565b6040518060800160405280600073ffffffffffffffffffffffffffffffffffffffff16815260200160608152602001606081526020016117a86116a2565b81525090565b82600281019282156117dd579160200282015b828111156117dc5782358255916020019190600101906117c1565b5b5090506117ea9190611810565b5090565b6040518060200160405280600190602082028036833780820191505090505090565b5b80821115611829576000816000905550600101611811565b5090565b5b8082111561184d57600081816118449190611851565b5060020161182e565b5090565b506000815560010160009055565b600080fd5b600080fd5b6003811061187657600080fd5b50565b60008135905061188881611869565b92915050565b6000819050919050565b6118a18161188e565b81146118ac57600080fd5b50565b6000813590506118be81611898565b92915050565b600080fd5b600080fd5b600080fd5b60008083601f8401126118e9576118e86118c4565b5b8235905067ffffffffffffffff811115611906576119056118c9565b5b602083019150836020820283011115611922576119216118ce565b5b9250929050565b600080600080606085870312156119435761194261185f565b5b600061195187828801611879565b9450506020611962878288016118af565b935050604085013567ffffffffffffffff81111561198357611982611864565b5b61198f878288016118d3565b925092505092959194509250565b6000819050826020600402820111156119b9576119b86118ce565b5b92915050565b60008083601f8401126119d5576119d46118c4565b5b8235905067ffffffffffffffff8111156119f2576119f16118c9565b5b602083019150836040820283011115611a0e57611a0d6118ce565b5b9250929050565b60008083601f840112611a2b57611a2a6118c4565b5b8235905067ffffffffffffffff811115611a4857611a476118c9565b5b602083019150836080820283011115611a6457611a636118ce565b5b9250929050565b600080600080600060c08688031215611a8757611a8661185f565b5b6000611a958882890161199d565b955050608086013567ffffffffffffffff811115611ab657611ab5611864565b5b611ac2888289016119bf565b945094505060a086013567ffffffffffffffff811115611ae557611ae4611864565b5b611af188828901611a15565b92509250509295509295909350565b600073ffffffffffffffffffffffffffffffffffffffff82169050919050565b6000611b2b82611b00565b9050919050565b611b3b81611b20565b8114611b4657600080fd5b50565b600081359050611b5881611b32565b92915050565b600060208284031215611b7457611b7361185f565b5b6000611b8284828501611b49565b91505092915050565b611b9481611b20565b82525050565b600081519050919050565b600082825260208201905092915050565b60005b83811015611bd4578082015181840152602081019050611bb9565b60008484015250505050565b6000601f19601f8301169050919050565b6000611bfc82611b9a565b611c068185611ba5565b9350611c16818560208601611bb6565b611c1f81611be0565b840191505092915050565b600060029050919050565b600081905092915050565b6000819050919050565b6000819050919050565b611c5d81611c4a565b82525050565b6000611c6f8383611c54565b60208301905092915050565b6000602082019050919050565b611c9181611c2a565b611c9b8184611c35565b9250611ca682611c40565b8060005b83811015611cd7578151611cbe8782611c63565b9650611cc983611c7b565b925050600181019050611caa565b505050505050565b600060a083016000830151611cf76000860182611b8b565b5060208301518482036020860152611d0f8282611bf1565b91505060408301518482036040860152611d298282611bf1565b9150506060830151611d3e6060860182611c88565b508091505092915050565b60006020820190508181036000830152611d638184611cdf565b905092915050565b60008083601f840112611d8157611d806118c4565b5b8235905067ffffffffffffffff811115611d9e57611d9d6118c9565b5b602083019150836001820283011115611dba57611db96118ce565b5b9250929050565b600081905082602060020282011115611ddd57611ddc6118ce565b5b92915050565b600080600080600060808688031215611dff57611dfe61185f565b5b600086013567ffffffffffffffff811115611e1d57611e1c611864565b5b611e2988828901611d6b565b9550955050602086013567ffffffffffffffff811115611e4c57611e4b611864565b5b611e5888828901611d6b565b93509350506040611e6b88828901611dc1565b9150509295509295909350565b600081905092915050565b611e8c81611c2a565b611e968184611e78565b9250611ea182611c40565b8060005b83811015611ed2578151611eb98782611c63565b9650611ec483611c7b565b925050600181019050611ea5565b505050505050565b6000604082019050611eef6000830184611e83565b92915050565b7f4e487b7100000000000000000000000000000000000000000000000000000000600052603260045260246000fd5b7f4e487b7100000000000000000000000000000000000000000000000000000000600052601160045260246000fd5b6000611f5e82611c4a565b91507fffffffffffffffffffffffffffffffffffffffffffffffffffffffffffffffff8203611f9057611f8f611f24565b5b600182019050919050565b7f4e487b7100000000000000000000000000000000000000000000000000000000600052602160045260246000fd5b60038110611fdb57611fda611f9b565b5b50565b6000819050611fec82611fca565b919050565b6000611ffc82611fde565b9050919050565b61200c81611ff1565b82525050565b61201b8161188e565b82525050565b600081549050919050565b600082825260208201905092915050565b60008190508160005260206000209050919050565b600061205e8383611b8b565b60208301905092915050565b60008160001c9050919050565b600073ffffffffffffffffffffffffffffffffffffffff82169050919050565b60006120aa6120a58361206a565b612077565b9050919050565b60006120bd8254612097565b9050919050565b6000600182019050919050565b60006120dc82612021565b6120e6818561202c565b93506120f18361203d565b8060005b8381101561212957612106826120b1565b6121108882612052565b975061211b836120c4565b9250506001810190506120f5565b5085935050505092915050565b600060608201905061214b6000830186612003565b6121586020830185612012565b818103604083015261216a81846120d1565b9050949350505050565b600082825260208201905092915050565b7f736967206e756d73206572726f72000000000000000000000000000000000000600082015250565b60006121bb600e83612174565b91506121c682612185565b602082019050919050565b600060208201905081810360008301526121ea816121ae565b9050919050565b82818337505050565b612206604083836121f1565b5050565b6000819050919050565b61222561222082611c4a565b61220a565b82525050565b60008160601b9050919050565b60006122438261222b565b9050919050565b600061225582612238565b9050919050565b61226d61226882611b20565b61224a565b82525050565b600061227f82866121fa565b60408201915061228f8285612214565b60208201915061229f828461225c565b601482019150819050949350505050565b6000819050919050565b6122cb6122c68261188e565b6122b0565b82525050565b60006122dd82846122ba565b60208201915081905092915050565b600081519050919050565b600081905092915050565b600061230d826122ec565b61231781856122f7565b9350612327818560208601611bb6565b80840191505092915050565b600061233f8284612302565b915081905092915050565b60008151905061235981611898565b92915050565b6000602082840312156123755761237461185f565b5b60006123838482850161234a565b91505092915050565b600061239782611c4a565b91506123a283611c4a565b92508282039050818111156123ba576123b9611f24565b5b92915050565b60006123cc82856122ba565b6020820191506123dc8284612214565b6020820191508190509392505050565b60006123f88285612302565b91506124048284612214565b6020820191508190509392505050565b7f73696720766572696679206661696c0000000000000000000000000000000000600082015250565b600061244a600f83612174565b915061245582612414565b602082019050919050565b600060208201905081810360008301526124798161243d565b9050919050565b7f4e487b7100000000000000000000000000000000000000000000000000000000600052602260045260246000fd5b600060028204905060018216806124c757607f821691505b6020821081036124da576124d9612480565b5b50919050565b7f616c726561647900000000000000000000000000000000000000000000000000600082015250565b6000612516600783612174565b9150612521826124e0565b602082019050919050565b6000602082019050818103600083015261254581612509565b9050919050565b7f656d707479206964656e74697479000000000000000000000000000000000000600082015250565b6000612582600e83612174565b915061258d8261254c565b602082019050919050565b600060208201905081810360008301526125b181612575565b9050919050565b600082905092915050565b7f4e487b7100000000000000000000000000000000000000000000000000000000600052604160045260246000fd5b60008190508160005260206000209050919050565b60006020601f8301049050919050565b600082821b905092915050565b6000600883026126547fffffffffffffffffffffffffffffffffffffffffffffffffffffffffffffffff82612617565b61265e8683612617565b95508019841693508086168417925050509392505050565b6000819050919050565b600061269b61269661269184611c4a565b612676565b611c4a565b9050919050565b6000819050919050565b6126b583612680565b6126c96126c1826126a2565b848454612624565b825550505050565b600090565b6126de6126d1565b6126e98184846126ac565b505050565b5b8181101561270d576127026000826126d6565b6001810190506126ef565b5050565b601f82111561275257612723816125f2565b61272c84612607565b8101602085101561273b578190505b61274f61274785612607565b8301826126ee565b50505b505050565b600082821c905092915050565b600061277560001984600802612757565b1980831691505092915050565b600061278e8383612764565b9150826002028217905092915050565b6127a883836125b8565b67ffffffffffffffff8111156127c1576127c06125c3565b5b6127cb82546124af565b6127d6828285612711565b6000601f83116001811461280557600084156127f3578287013590505b6127fd8582612782565b865550612865565b601f198416612813866125f2565b60005b8281101561283b57848901358255600182019150602085019450602081019050612816565b868310156128585784890135612854601f891682612764565b8355505b6001600288020188555050505b50505050505050565b7f6563206d756c206661696c656400000000000000000000000000000000000000600082015250565b60006128a4600d83612174565b91506128af8261286e565b602082019050919050565b600060208201905081810360008301526128d381612897565b9050919050565b7f626e323536206164646974696f6e206661696c65640000000000000000000000600082015250565b6000612910601583612174565b915061291b826128da565b602082019050919050565b6000602082019050818103600083015261293f81612903565b9050919050565b7f4e487b7100000000000000000000000000000000000000000000000000000000600052601260045260246000fd5b600061298082611c4a565b915061298b83611c4a565b92508261299b5761299a612946565b5b828206905092915050565b7f696e636f727265637420696e707574206c656e67746800000000000000000000600082015250565b60006129dc601683612174565b91506129e7826129a6565b602082019050919050565b60006020820190508181036000830152612a0b816129cf565b9050919050565b6000612a1d82611c4a565b9150612a2883611c4a565b9250828202612a3681611c4a565b91508282048414831517612a4d57612a4c611f24565b5b5092915050565b7f65632070616972696e67206661696c6564000000000000000000000000000000600082015250565b6000612a8a601183612174565b9150612a9582612a54565b602082019050919050565b60006020820190508181036000830152612ab981612a7d565b905091905056fea2646970667358221220daaad4ce96ed88c30a397162cd020e543d89dbc427daa9c3af957dda4fc6d51164736f6c63430008130033",
  "immutableReferences": {},
  "source": "// SPDX-License-Identifier: MIT \npragma solidity ^0.8.19;\n\nimport \"./crypto/BN256G1.sol\";\n\ncontract BatchVerifier {\n\t\n    struct Signer {\n        address addr;      // eth address\n        string ipAddr;     // IP\n        string identity;   // identity\n\t\tuint256[2] pubKey;  // H(identity), H: string -> G1 point\n    }\n\n\tmapping (address => Signer) private SignerMap;\n\n\taddress[] private SignerArr;\n\n\taddress[] private SignOrder;\n\n\tbytes32 private message;\n\n\tuint256[] private randoms;\n\n\tuint256[2][] private hashPointSequence;\n\n\tuint256[] private checkPairingInput;\n\n\tenum SignType { NOTBATCH, BATCH1, BATCH2 }\n\n\tevent Sign(SignType typ, bytes32 message, address[] signOrder);\n\n\t// generator of G1\n\tuint256 private constant G1_GEN_X = \n\t    0x0000000000000000000000000000000000000000000000000000000000000001;\n\tuint256 private constant G1_GEN_Y = \n\t    0x8fb501e34aa387f9aa6fecb86184dc21ee5b88d120b5b59e185cac6c5e089665;\n\n\t// generator of G2\n\tuint256 private constant G2_GEN_X_RE =\n        0x198E9393920D483A7260BFB731FB5D25F1AA493335A9E71297E485B7AEF312C2;\n    uint256 private constant G2_GEN_X_IM =\n        0x1800DEEF121F1E76426A00665E5C4479674322D4F75EDADD46DEBD5CD992F6ED;\n    uint256 private constant G2_GEN_Y_RE =\n        0x275dc4a288d1afb3cbb1ac09187524c7db36395df7be3b99e673b13a075a65ec;\n    uint256 private constant G2_GEN_Y_IM =\n        0x1d9befcd05a5323e6da4d435f3b617cdb3af83285c2df711ef39c01571827f9d;\n\n\n// --------------------------------------------------------------------------------------------------------------------------------------------------------\n\n\n\tfunction register(string calldata ipAddr, string calldata identity, uint256[2] calldata pubKey) \n\t\texternal\n\t\tpayable\n\t{\n\t\trequire(SignerMap[msg.sender].addr != msg.sender, \"already\");\n\t\trequire(bytes(identity).length != 0, \"empty identity\");\n\t\tSigner storage signer = SignerMap[msg.sender];\n\t\tsigner.addr = msg.sender;\n\t\tsigner.ipAddr = ipAddr;\n\t\tsigner.identity = identity;\n\t\tsigner.pubKey = pubKey;\n\t\tSignerArr.push(msg.sender);\n\t}\n\n\tfunction requestSign(SignType typ, bytes32 _message, uint[] calldata signOrder) \n\t\texternal\n\t\tpayable\n\t{\n\t\tfor(uint i = 0; i < signOrder.length; i++){\n\t\t\tSignOrder.push(SignerArr[i]);\n\t\t}\n\t\tmessage = _message;\n\t\temit Sign(typ, message, SignOrder);\n\t}\n\n\tfunction submitNotBatch(uint256[4] calldata masterPubKey, uint256[2][] calldata signatures, uint256[4][] calldata setOfR)\n\t\texternal\n\t\tpayable\n\t{\n\n\t}\n\n\tfunction submitBatch1(uint256[4] calldata masterPubKey, uint256[2][] calldata signatures, uint256[4][] calldata setOfR)\n\t\texternal\n\t\tpayable\n\t{\n\t\trequire(SignOrder.length == signatures.length, \"sig nums error\");\n\t\tfor(uint i = 0; i < signatures.length; i++){\n\t\t\trandoms.push(uint256(keccak256(abi.encodePacked(signatures[i], block.prevrandao, msg.sender))));\n\t\t}\n\n\t\t// cal (s1 ^ p1) * (s2 ^ p2) * (s3 ^ p3) ...\n\t\tuint256 Sx = 0;\n\t\tuint256 Sy = 0;\n\t\tfor(uint i = 0; i < signatures.length; i++){\n\t\t\tuint256 tempX;\n\t\t\tuint256 tempY;\n\t\t\t(tempX, tempY) = BN256G1.mulPoint([signatures[i][0], signatures[i][1], randoms[i]]);\n\t\t\t(Sx, Sy) = BN256G1.addPoint([Sx, Sy, tempX, tempY]);\n\t\t}\n\n\t\t// cal H(ID1) * H(ID2) * H(ID3) ...\n\t\tuint256 idx = 0;\n\t\tuint256 idy = 0;\n\t\tfor(uint i = 0; i < SignOrder.length; i++){\n\t\t\tuint256[2] memory pubKey = getSignerPubkeyByAddress(SignOrder[i]);\n\t\t\t(pubKey[0], pubKey[1]) = BN256G1.mulPoint([pubKey[0], pubKey[1], randoms[i]]);\n\t\t\t(idx, idy) = BN256G1.addPoint([idx, idy, pubKey[0], pubKey[1]]);\n\t\t}\n\n\t\t// cal H(mi)\n\t\tuint256 firstX;\n\t\tuint256 firstY;\n\t\t(firstX, firstY) = BN256G1.mulPoint([G1_GEN_X, G1_GEN_Y, uint256(sha256(abi.encodePacked(message)))]);\n\n\t\tuint256[2] memory first;\n\t\t(first[0], first[1]) = BN256G1.mulPoint([firstX, firstY, randoms[0]]);\n\t\thashPointSequence.push(first);\n\n\t\tfor(uint i = 1; i < SignOrder.length; i++){\n\t\t\tuint256 tempX;\n\t\t\tuint256 tempY;\n\t\t\tbytes memory t = abi.encodePacked(message, signatures[i - 1][0]);\n\t\t\tt = abi.encodePacked(t, signatures[i - 1][1]);\n\t\t\tbytes32 res = sha256(t);\n\t\t\t(tempX, tempY) = BN256G1.mulPoint([G1_GEN_X, G1_GEN_Y, uint256(res)]);\n\n\t\t\tuint256[2] memory hashPoint;\n\t\t\t(hashPoint[0], hashPoint[1]) = BN256G1.mulPoint([tempX, tempY, randoms[i]]);\n\t\t\thashPointSequence.push(hashPoint);\n\t\t}\n\n\t\tcheckPairingInput.push(Sx);\n\t\tcheckPairingInput.push(Sy);\n\t\tcheckPairingInput.push(G2_GEN_X_RE);\n\t\tcheckPairingInput.push(G2_GEN_X_IM);\n\t\tcheckPairingInput.push(G2_GEN_Y_RE);\n\t\tcheckPairingInput.push(G2_GEN_Y_IM);\n\n\t\tcheckPairingInput.push(idx);\n\t\tcheckPairingInput.push(idy);\n\t\tcheckPairingInput.push(masterPubKey[0]);\n\t\tcheckPairingInput.push(masterPubKey[1]);\n\t\tcheckPairingInput.push(masterPubKey[2]);\n\t\tcheckPairingInput.push(masterPubKey[3]);\n\n\t\tfor(uint i = 0; i < SignOrder.length; i++){\n\t\t\tcheckPairingInput.push(hashPointSequence[i][0]);\n\t\t\tcheckPairingInput.push(hashPointSequence[i][1]);\n\t\t\tcheckPairingInput.push(setOfR[i][0]);\n\t\t\tcheckPairingInput.push(setOfR[i][1]);\n\t\t\tcheckPairingInput.push(setOfR[i][2]);\n\t\t\tcheckPairingInput.push(setOfR[i][3]);\n\t\t}\n\n\t\trequire(BN256G1.bn256CheckPairingBatch(checkPairingInput), \"sig verify fail\");\n\n\t\tdelete SignOrder;\n\t\tdelete randoms;\n\t\tdelete hashPointSequence;\n\t\tdelete checkPairingInput;\n\t}\n\n\tfunction submitBatch2()\n\t\texternal\n\t\tpayable\n\t{\n\n\t}\n\n\tfunction getSignerByAddress(address addr) \n\t\tpublic\n\t\tview\n\t\treturns (Signer memory)\n\t{\n\t\treturn SignerMap[addr];\n\t}\n\n\tfunction getSignerPubkeyByAddress(address addr) \n\t\tpublic\n\t\tview\n\t\treturns (uint256[2] memory)\n\t{\n\t\treturn SignerMap[addr].pubKey;\n\t}\n}\n",
  "sourcePath": "/home/yuhang/OracleProject/batch-verify-IBE-system/batchverifier/contracts/BatchVerifier.sol",
  "compiler": {
    "name": "solc",
    "version": "0.8.19+commit.7dd6d404.Emscripten.clang"
  },
  "schemaVersion": "3.4.16",
  "updatedAt": "2023-12-27T02:00:49.248Z",
  "networkType": "ethereum",
  "devdoc": {
    "kind": "dev",
    "methods": {},
    "version": 1
  },
  "userdoc": {
    "kind": "user",
    "methods": {},
    "version": 1
  }
}