{
  "contractName": "BatchVerifier",
  "abi": [
    {
      "anonymous": false,
      "inputs": [
        {
          "indexed": false,
          "internalType": "enum BatchVerifier.SignType",
          "name": "typ",
          "type": "uint8"
        },
        {
          "indexed": false,
          "internalType": "bytes32",
          "name": "message",
          "type": "bytes32"
        },
        {
          "indexed": false,
          "internalType": "address[]",
          "name": "signOrder",
          "type": "address[]"
        }
      ],
      "name": "Sign",
      "type": "event"
    },
    {
      "inputs": [
        {
          "internalType": "string",
          "name": "ipAddr",
          "type": "string"
        },
        {
          "internalType": "string",
          "name": "identity",
          "type": "string"
        },
        {
          "internalType": "uint256[2]",
          "name": "pubKey",
          "type": "uint256[2]"
        }
      ],
      "name": "register",
      "outputs": [],
      "stateMutability": "payable",
      "type": "function",
      "payable": true
    },
    {
      "inputs": [
        {
          "internalType": "enum BatchVerifier.SignType",
          "name": "typ",
          "type": "uint8"
        },
        {
          "internalType": "bytes32",
          "name": "_message",
          "type": "bytes32"
        },
        {
          "internalType": "uint256[]",
          "name": "signOrder",
          "type": "uint256[]"
        }
      ],
      "name": "requestSign",
      "outputs": [],
      "stateMutability": "payable",
      "type": "function",
      "payable": true
    },
    {
      "inputs": [
        {
          "internalType": "uint256[4]",
          "name": "masterPubKey",
          "type": "uint256[4]"
        },
        {
          "internalType": "uint256[2][]",
          "name": "signatures",
          "type": "uint256[2][]"
        },
        {
          "internalType": "uint256[4][]",
          "name": "setOfR",
          "type": "uint256[4][]"
        }
      ],
      "name": "submitNotBatch",
      "outputs": [],
      "stateMutability": "payable",
      "type": "function",
      "payable": true
    },
    {
      "inputs": [
        {
          "internalType": "uint256[4]",
          "name": "masterPubKey",
          "type": "uint256[4]"
        },
        {
          "internalType": "uint256[2][]",
          "name": "signatures",
          "type": "uint256[2][]"
        },
        {
          "internalType": "uint256[4][]",
          "name": "setOfR",
          "type": "uint256[4][]"
        }
      ],
      "name": "submitBatch1",
      "outputs": [],
      "stateMutability": "payable",
      "type": "function",
      "payable": true
    },
    {
      "inputs": [],
      "name": "submitBatch2",
      "outputs": [],
      "stateMutability": "payable",
      "type": "function",
      "payable": true
    },
    {
      "inputs": [
        {
          "internalType": "address",
          "name": "addr",
          "type": "address"
        }
      ],
      "name": "getSignerByAddress",
      "outputs": [
        {
          "components": [
            {
              "internalType": "address",
              "name": "addr",
              "type": "address"
            },
            {
              "internalType": "string",
              "name": "ipAddr",
              "type": "string"
            },
            {
              "internalType": "string",
              "name": "identity",
              "type": "string"
            },
            {
              "internalType": "uint256[2]",
              "name": "pubKey",
              "type": "uint256[2]"
            }
          ],
          "internalType": "struct BatchVerifier.Signer",
          "name": "",
          "type": "tuple"
        }
      ],
      "stateMutability": "view",
      "type": "function",
      "constant": true
    },
    {
      "inputs": [
        {
          "internalType": "address",
          "name": "addr",
          "type": "address"
        }
      ],
      "name": "getSignerPubkeyByAddress",
      "outputs": [
        {
          "internalType": "uint256[2]",
          "name": "",
          "type": "uint256[2]"
        }
      ],
      "stateMutability": "view",
      "type": "function",
      "constant": true
    }
  ],
  "bytecode": "0x608060405234801561001057600080fd5b50612eb4806100206000396000f3fe6080604052600436106100705760003560e01c8063c50bafcc1161004e578063c50bafcc146100b7578063d55bef0d146100f4578063d999dc7914610110578063f7ab32dd1461014d57610070565b806314b0845b14610075578063500ea6dd146100915780637260d4961461009b575b600080fd5b61008f600480360381019061008a9190611ba3565b610169565b005b610099610277565b005b6100b560048036038101906100b09190611ce5565b610279565b005b3480156100c357600080fd5b506100de60048036038101906100d99190611dd8565b6110e0565b6040516100eb9190611fc3565b60405180910390f35b61010e6004803603810190610109919061205d565b6112f7565b005b34801561011c57600080fd5b5061013760048036038101906101329190611dd8565b611538565b6040516101449190612154565b60405180910390f35b61016760048036038101906101629190611ce5565b6115c4565b005b60005b8282905081101561022b5760026001828154811061018d5761018c61216f565b5b9060005260206000200160009054906101000a900473ffffffffffffffffffffffffffffffffffffffff169080600181540180825580915050600190039060005260206000200160009091909190916101000a81548173ffffffffffffffffffffffffffffffffffffffff021916908373ffffffffffffffffffffffffffffffffffffffff1602179055508080610223906121cd565b91505061016c565b50826003819055507fe61643f97fc9c5788b5a2f6bd92fa52f4bd9edddb496947f35113e51f3089b1f846003546002604051610269939291906123b0565b60405180910390a150505050565b565b83839050600280549050146102c3576040517f08c379a00000000000000000000000000000000000000000000000000000000081526004016102ba9061244b565b60405180910390fd5b60005b848490508110156103525760048585838181106102e6576102e561216f565b5b9050604002014433604051602001610300939291906124ed565b6040516020818303038152906040528051906020012060001c9080600181540180825580915050600190039060005260206000200160009091909190915055808061034a906121cd565b9150506102c6565b5060008060005b868690508110156104ee576000806103c08989600081811061037e5761037d61216f565b5b9050604002016002806020026040519081016040528092919082600260200280828437600081840152601f19601f8201169050808301925050505050506115cb565b6103ff576040517f08c379a00000000000000000000000000000000000000000000000000000000081526004016103f690612576565b60405180910390fd5b6104a060405180606001604052808b8b878181106104205761041f61216f565b5b9050604002016000600281106104395761043861216f565b5b602002013581526020018b8b878181106104565761045561216f565b5b90506040020160016002811061046f5761046e61216f565b5b602002013581526020016004868154811061048d5761048c61216f565b5b9060005260206000200154815250611633565b80925081935050506104d16040518060800160405280878152602001868152602001848152602001838152506116cd565b8095508196505050505080806104e6906121cd565b915050610359565b5060008060005b6002805490508110156106f957600061054b6002838154811061051b5761051a61216f565b5b9060005260206000200160009054906101000a900473ffffffffffffffffffffffffffffffffffffffff16611538565b905061059a60405180604001604052808360006002811061056f5761056e61216f565b5b602002015181526020018360016002811061058d5761058c61216f565b5b60200201518152506115cb565b6105d9576040517f08c379a00000000000000000000000000000000000000000000000000000000081526004016105d0906125e2565b60405180910390fd5b61064a6040518060600160405280836000600281106105fb576105fa61216f565b5b60200201518152602001836001600281106106195761061861216f565b5b60200201518152602001600485815481106106375761063661216f565b5b9060005260206000200154815250611633565b8260006002811061065e5761065d61216f565b5b60200201836001600281106106765761067561216f565b5b60200201828152508281525050506106dd6040518060800160405280868152602001858152602001836000600281106106b2576106b161216f565b5b60200201518152602001836001600281106106d0576106cf61216f565b5b60200201518152506116cd565b80945081955050505080806106f1906121cd565b9150506104f5565b5060008061071c60405180604001604052806001815260200160028152506115cb565b61075b576040517f08c379a00000000000000000000000000000000000000000000000000000000081526004016107529061264e565b60405180910390fd5b6107f360405180606001604052806001815260200160028152602001600260035460405160200161078c919061268f565b6040516020818303038152906040526040516107a891906126f1565b602060405180830381855afa1580156107c5573d6000803e3d6000fd5b5050506040513d601f19601f820116820180604052508101906107e8919061271d565b60001c815250611633565b809250819350505061080361191c565b610845604051806060016040528085815260200184815260200160046000815481106108325761083161216f565b5b9060005260206000200154815250611633565b826000600281106108595761085861216f565b5b60200201836001600281106108715761087061216f565b5b602002018281525082815250505060058190806001815401808255809150506001900390600052602060002090600202016000909190919091509060026108b992919061193e565b506000600190505b600280549050811015610aef5760008060006003548f8f6001876108e5919061274a565b8181106108f5576108f461216f565b5b90506040020160006002811061090e5761090d61216f565b5b602002013560405160200161092492919061277e565b6040516020818303038152906040529050808f8f600187610945919061274a565b8181106109555761095461216f565b5b90506040020160016002811061096e5761096d61216f565b5b60200201356040516020016109849291906127aa565b604051602081830303815290604052905060006002826040516109a791906126f1565b602060405180830381855afa1580156109c4573d6000803e3d6000fd5b5050506040513d601f19601f820116820180604052508101906109e7919061271d565b9050610a11604051806060016040528060018152602001600281526020018360001c815250611633565b8094508195505050610a2161191c565b610a62604051806060016040528087815260200186815260200160048981548110610a4f57610a4e61216f565b5b9060005260206000200154815250611633565b82600060028110610a7657610a7561216f565b5b6020020183600160028110610a8e57610a8d61216f565b5b60200201828152508281525050506005819080600181540180825580915050600190039060005260206000209060020201600090919091909150906002610ad692919061193e565b5050505050508080610ae7906121cd565b9150506108c1565b506006879080600181540180825580915050600190039060005260206000200160009091909190915055600686908060018154018082558091505060019003906000526020600020016000909190919091505560067f198e9393920d483a7260bfb731fb5d25f1aa493335a9e71297e485b7aef312c2908060018154018082558091505060019003906000526020600020016000909190919091505560067f1800deef121f1e76426a00665e5c4479674322d4f75edadd46debd5cd992f6ed908060018154018082558091505060019003906000526020600020016000909190919091505560067f275dc4a288d1afb3cbb1ac09187524c7db36395df7be3b99e673b13a075a65ec908060018154018082558091505060019003906000526020600020016000909190919091505560067f1d9befcd05a5323e6da4d435f3b617cdb3af83285c2df711ef39c01571827f9d90806001815401808255809150506001900390600052602060002001600090919091909150556006859080600181540180825580915050600190039060005260206000200160009091909190915055600684908060018154018082558091505060019003906000526020600020016000909190919091505560068c600060048110610cce57610ccd61216f565b5b6020020135908060018154018082558091505060019003906000526020600020016000909190919091505560068c600160048110610d0f57610d0e61216f565b5b6020020135908060018154018082558091505060019003906000526020600020016000909190919091505560068c600260048110610d5057610d4f61216f565b5b6020020135908060018154018082558091505060019003906000526020600020016000909190919091505560068c600360048110610d9157610d9061216f565b5b6020020135908060018154018082558091505060019003906000526020600020016000909190919091505560005b60028054905081101561100157600660058281548110610de257610de161216f565b5b9060005260206000209060020201600060028110610e0357610e0261216f565b5b01549080600181540180825580915050600190039060005260206000200160009091909190915055600660058281548110610e4157610e4061216f565b5b9060005260206000209060020201600160028110610e6257610e6161216f565b5b0154908060018154018082558091505060019003906000526020600020016000909190919091505560068a8a83818110610e9f57610e9e61216f565b5b905060800201600060048110610eb857610eb761216f565b5b6020020135908060018154018082558091505060019003906000526020600020016000909190919091505560068a8a83818110610ef857610ef761216f565b5b905060800201600160048110610f1157610f1061216f565b5b6020020135908060018154018082558091505060019003906000526020600020016000909190919091505560068a8a83818110610f5157610f5061216f565b5b905060800201600260048110610f6a57610f6961216f565b5b6020020135908060018154018082558091505060019003906000526020600020016000909190919091505560068a8a83818110610faa57610fa961216f565b5b905060800201600360048110610fc357610fc261216f565b5b602002013590806001815401808255809150506001900390600052602060002001600090919091909150558080610ff9906121cd565b915050610dbf565b5061105b600680548060200260200160405190810160405280929190818152602001828054801561105157602002820191906000526020600020905b81548152602001906001019080831161103d575b5050505050611767565b61109a576040517f08c379a00000000000000000000000000000000000000000000000000000000081526004016110919061281e565b60405180910390fd5b600260006110a8919061197e565b600460006110b6919061199f565b600560006110c491906119c0565b600660006110d2919061199f565b505050505050505050505050565b6110e86119e4565b6000808373ffffffffffffffffffffffffffffffffffffffff1673ffffffffffffffffffffffffffffffffffffffff1681526020019081526020016000206040518060800160405290816000820160009054906101000a900473ffffffffffffffffffffffffffffffffffffffff1673ffffffffffffffffffffffffffffffffffffffff1673ffffffffffffffffffffffffffffffffffffffff1681526020016001820180546111979061286d565b80601f01602080910402602001604051908101604052809291908181526020018280546111c39061286d565b80156112105780601f106111e557610100808354040283529160200191611210565b820191906000526020600020905b8154815290600101906020018083116111f357829003601f168201915b505050505081526020016002820180546112299061286d565b80601f01602080910402602001604051908101604052809291908181526020018280546112559061286d565b80156112a25780601f10611277576101008083540402835291602001916112a2565b820191906000526020600020905b81548152906001019060200180831161128557829003601f168201915b50505050508152602001600382016002806020026040519081016040528092919082600280156112e7576020028201915b8154815260200190600101908083116112d3575b5050505050815250509050919050565b3373ffffffffffffffffffffffffffffffffffffffff166000803373ffffffffffffffffffffffffffffffffffffffff1673ffffffffffffffffffffffffffffffffffffffff16815260200190815260200160002060000160009054906101000a900473ffffffffffffffffffffffffffffffffffffffff1673ffffffffffffffffffffffffffffffffffffffff16036113c6576040517f08c379a00000000000000000000000000000000000000000000000000000000081526004016113bd906128ea565b60405180910390fd5b6000838390500361140c576040517f08c379a000000000000000000000000000000000000000000000000000000000815260040161140390612956565b60405180910390fd5b60008060003373ffffffffffffffffffffffffffffffffffffffff1673ffffffffffffffffffffffffffffffffffffffff1681526020019081526020016000209050338160000160006101000a81548173ffffffffffffffffffffffffffffffffffffffff021916908373ffffffffffffffffffffffffffffffffffffffff16021790555085858260010191826114a4929190612b5c565b5083838260020191826114b8929190612b5c565b5081816003019060026114cc929190611a28565b506001339080600181540180825580915050600190039060005260206000200160009091909190916101000a81548173ffffffffffffffffffffffffffffffffffffffff021916908373ffffffffffffffffffffffffffffffffffffffff160217905550505050505050565b61154061191c565b6000808373ffffffffffffffffffffffffffffffffffffffff1673ffffffffffffffffffffffffffffffffffffffff1681526020019081526020016000206003016002806020026040519081016040528092919082600280156115b8576020028201915b8154815260200190600101908083116115a4575b50505050509050919050565b5050505050565b600061162c826000600281106115e4576115e361216f565b5b6020020151836001600281106115fd576115fc61216f565b5b6020020151600060037f30644e72e131a029b85045b68181585d97816a916871ca8d3c208c16d87cfd4761184e565b9050919050565b600080600061164061191c565b60408160608760006007600019f1915081611690576040517f08c379a000000000000000000000000000000000000000000000000000000000815260040161168790612c78565b60405180910390fd5b806000600281106116a4576116a361216f565b5b6020020151816001600281106116bd576116bc61216f565b5b6020020151935093505050915091565b60008060006116da61191c565b60408160808760006006600019f191508161172a576040517f08c379a000000000000000000000000000000000000000000000000000000000815260040161172190612ce4565b60405180910390fd5b8060006002811061173e5761173d61216f565b5b6020020151816001600281106117575761175661216f565b5b6020020151935093505050915091565b6000611771611a68565b600080600685516117829190612d33565b146117c2576040517f08c379a00000000000000000000000000000000000000000000000000000000081526004016117b990612db0565b60405180910390fd5b6000602085516117d29190612dd0565b90506020838260208801600060086107d05a03f1915081611828576040517f08c379a000000000000000000000000000000000000000000000000000000000815260040161181f90612e5e565b60405180910390fd5b60018360006001811061183e5761183d61216f565b5b6020020151149350505050919050565b6000856000148061185f5750818610155b8061186a5750846000145b806118755750818510155b156118835760009050611913565b6000828061189457611893612d04565b5b8687099050600083806118aa576118a9612d04565b5b8885806118ba576118b9612d04565b5b8a8b09099050600086146118ee5783806118d7576118d6612d04565b5b84806118e6576118e5612d04565b5b878a09820890505b6000851461190b57838061190557611904612d04565b5b85820890505b808214925050505b95945050505050565b6040518060400160405280600290602082028036833780820191505090505090565b826002810192821561196d579160200282015b8281111561196c578251825591602001919060010190611951565b5b50905061197a9190611a8a565b5090565b508054600082559060005260206000209081019061199c9190611a8a565b50565b50805460008255906000526020600020908101906119bd9190611a8a565b50565b50805460008255600202906000526020600020908101906119e19190611aa7565b50565b6040518060800160405280600073ffffffffffffffffffffffffffffffffffffffff1681526020016060815260200160608152602001611a2261191c565b81525090565b8260028101928215611a57579160200282015b82811115611a56578235825591602001919060010190611a3b565b5b509050611a649190611a8a565b5090565b6040518060200160405280600190602082028036833780820191505090505090565b5b80821115611aa3576000816000905550600101611a8b565b5090565b5b80821115611ac75760008181611abe9190611acb565b50600201611aa8565b5090565b506000815560010160009055565b600080fd5b600080fd5b60038110611af057600080fd5b50565b600081359050611b0281611ae3565b92915050565b6000819050919050565b611b1b81611b08565b8114611b2657600080fd5b50565b600081359050611b3881611b12565b92915050565b600080fd5b600080fd5b600080fd5b60008083601f840112611b6357611b62611b3e565b5b8235905067ffffffffffffffff811115611b8057611b7f611b43565b5b602083019150836020820283011115611b9c57611b9b611b48565b5b9250929050565b60008060008060608587031215611bbd57611bbc611ad9565b5b6000611bcb87828801611af3565b9450506020611bdc87828801611b29565b935050604085013567ffffffffffffffff811115611bfd57611bfc611ade565b5b611c0987828801611b4d565b925092505092959194509250565b600081905082602060040282011115611c3357611c32611b48565b5b92915050565b60008083601f840112611c4f57611c4e611b3e565b5b8235905067ffffffffffffffff811115611c6c57611c6b611b43565b5b602083019150836040820283011115611c8857611c87611b48565b5b9250929050565b60008083601f840112611ca557611ca4611b3e565b5b8235905067ffffffffffffffff811115611cc257611cc1611b43565b5b602083019150836080820283011115611cde57611cdd611b48565b5b9250929050565b600080600080600060c08688031215611d0157611d00611ad9565b5b6000611d0f88828901611c17565b955050608086013567ffffffffffffffff811115611d3057611d2f611ade565b5b611d3c88828901611c39565b945094505060a086013567ffffffffffffffff811115611d5f57611d5e611ade565b5b611d6b88828901611c8f565b92509250509295509295909350565b600073ffffffffffffffffffffffffffffffffffffffff82169050919050565b6000611da582611d7a565b9050919050565b611db581611d9a565b8114611dc057600080fd5b50565b600081359050611dd281611dac565b92915050565b600060208284031215611dee57611ded611ad9565b5b6000611dfc84828501611dc3565b91505092915050565b611e0e81611d9a565b82525050565b600081519050919050565b600082825260208201905092915050565b60005b83811015611e4e578082015181840152602081019050611e33565b60008484015250505050565b6000601f19601f8301169050919050565b6000611e7682611e14565b611e808185611e1f565b9350611e90818560208601611e30565b611e9981611e5a565b840191505092915050565b600060029050919050565b600081905092915050565b6000819050919050565b6000819050919050565b611ed781611ec4565b82525050565b6000611ee98383611ece565b60208301905092915050565b6000602082019050919050565b611f0b81611ea4565b611f158184611eaf565b9250611f2082611eba565b8060005b83811015611f51578151611f388782611edd565b9650611f4383611ef5565b925050600181019050611f24565b505050505050565b600060a083016000830151611f716000860182611e05565b5060208301518482036020860152611f898282611e6b565b91505060408301518482036040860152611fa38282611e6b565b9150506060830151611fb86060860182611f02565b508091505092915050565b60006020820190508181036000830152611fdd8184611f59565b905092915050565b60008083601f840112611ffb57611ffa611b3e565b5b8235905067ffffffffffffffff81111561201857612017611b43565b5b60208301915083600182028301111561203457612033611b48565b5b9250929050565b60008190508260206002028201111561205757612056611b48565b5b92915050565b60008060008060006080868803121561207957612078611ad9565b5b600086013567ffffffffffffffff81111561209757612096611ade565b5b6120a388828901611fe5565b9550955050602086013567ffffffffffffffff8111156120c6576120c5611ade565b5b6120d288828901611fe5565b935093505060406120e58882890161203b565b9150509295509295909350565b600081905092915050565b61210681611ea4565b61211081846120f2565b925061211b82611eba565b8060005b8381101561214c5781516121338782611edd565b965061213e83611ef5565b92505060018101905061211f565b505050505050565b600060408201905061216960008301846120fd565b92915050565b7f4e487b7100000000000000000000000000000000000000000000000000000000600052603260045260246000fd5b7f4e487b7100000000000000000000000000000000000000000000000000000000600052601160045260246000fd5b60006121d882611ec4565b91507fffffffffffffffffffffffffffffffffffffffffffffffffffffffffffffffff820361220a5761220961219e565b5b600182019050919050565b7f4e487b7100000000000000000000000000000000000000000000000000000000600052602160045260246000fd5b6003811061225557612254612215565b5b50565b600081905061226682612244565b919050565b600061227682612258565b9050919050565b6122868161226b565b82525050565b61229581611b08565b82525050565b600081549050919050565b600082825260208201905092915050565b60008190508160005260206000209050919050565b60006122d88383611e05565b60208301905092915050565b60008160001c9050919050565b600073ffffffffffffffffffffffffffffffffffffffff82169050919050565b600061232461231f836122e4565b6122f1565b9050919050565b60006123378254612311565b9050919050565b6000600182019050919050565b60006123568261229b565b61236081856122a6565b935061236b836122b7565b8060005b838110156123a3576123808261232b565b61238a88826122cc565b97506123958361233e565b92505060018101905061236f565b5085935050505092915050565b60006060820190506123c5600083018661227d565b6123d2602083018561228c565b81810360408301526123e4818461234b565b9050949350505050565b600082825260208201905092915050565b7f736967206e756d73206572726f72000000000000000000000000000000000000600082015250565b6000612435600e836123ee565b9150612440826123ff565b602082019050919050565b6000602082019050818103600083015261246481612428565b9050919050565b82818337505050565b6124806040838361246b565b5050565b6000819050919050565b61249f61249a82611ec4565b612484565b82525050565b60008160601b9050919050565b60006124bd826124a5565b9050919050565b60006124cf826124b2565b9050919050565b6124e76124e282611d9a565b6124c4565b82525050565b60006124f98286612474565b604082019150612509828561248e565b60208201915061251982846124d6565b601482019150819050949350505050565b7f4e6f74206f6e2063757276650000000000000000000000000000000000000000600082015250565b6000612560600c836123ee565b915061256b8261252a565b602082019050919050565b6000602082019050818103600083015261258f81612553565b9050919050565b7f5075626b6579204e6f74206f6e20637572766500000000000000000000000000600082015250565b60006125cc6013836123ee565b91506125d782612596565b602082019050919050565b600060208201905081810360008301526125fb816125bf565b9050919050565b7f47656e204e6f74206f6e20637572766500000000000000000000000000000000600082015250565b60006126386010836123ee565b915061264382612602565b602082019050919050565b600060208201905081810360008301526126678161262b565b9050919050565b6000819050919050565b61268961268482611b08565b61266e565b82525050565b600061269b8284612678565b60208201915081905092915050565b600081519050919050565b600081905092915050565b60006126cb826126aa565b6126d581856126b5565b93506126e5818560208601611e30565b80840191505092915050565b60006126fd82846126c0565b915081905092915050565b60008151905061271781611b12565b92915050565b60006020828403121561273357612732611ad9565b5b600061274184828501612708565b91505092915050565b600061275582611ec4565b915061276083611ec4565b92508282039050818111156127785761277761219e565b5b92915050565b600061278a8285612678565b60208201915061279a828461248e565b6020820191508190509392505050565b60006127b682856126c0565b91506127c2828461248e565b6020820191508190509392505050565b7f73696720766572696679206661696c0000000000000000000000000000000000600082015250565b6000612808600f836123ee565b9150612813826127d2565b602082019050919050565b60006020820190508181036000830152612837816127fb565b9050919050565b7f4e487b7100000000000000000000000000000000000000000000000000000000600052602260045260246000fd5b6000600282049050600182168061288557607f821691505b6020821081036128985761289761283e565b5b50919050565b7f616c726561647900000000000000000000000000000000000000000000000000600082015250565b60006128d46007836123ee565b91506128df8261289e565b602082019050919050565b60006020820190508181036000830152612903816128c7565b9050919050565b7f656d707479206964656e74697479000000000000000000000000000000000000600082015250565b6000612940600e836123ee565b915061294b8261290a565b602082019050919050565b6000602082019050818103600083015261296f81612933565b9050919050565b600082905092915050565b7f4e487b7100000000000000000000000000000000000000000000000000000000600052604160045260246000fd5b60008190508160005260206000209050919050565b60006020601f8301049050919050565b600082821b905092915050565b600060088302612a127fffffffffffffffffffffffffffffffffffffffffffffffffffffffffffffffff826129d5565b612a1c86836129d5565b95508019841693508086168417925050509392505050565b6000819050919050565b6000612a59612a54612a4f84611ec4565b612a34565b611ec4565b9050919050565b6000819050919050565b612a7383612a3e565b612a87612a7f82612a60565b8484546129e2565b825550505050565b600090565b612a9c612a8f565b612aa7818484612a6a565b505050565b5b81811015612acb57612ac0600082612a94565b600181019050612aad565b5050565b601f821115612b1057612ae1816129b0565b612aea846129c5565b81016020851015612af9578190505b612b0d612b05856129c5565b830182612aac565b50505b505050565b600082821c905092915050565b6000612b3360001984600802612b15565b1980831691505092915050565b6000612b4c8383612b22565b9150826002028217905092915050565b612b668383612976565b67ffffffffffffffff811115612b7f57612b7e612981565b5b612b89825461286d565b612b94828285612acf565b6000601f831160018114612bc35760008415612bb1578287013590505b612bbb8582612b40565b865550612c23565b601f198416612bd1866129b0565b60005b82811015612bf957848901358255600182019150602085019450602081019050612bd4565b86831015612c165784890135612c12601f891682612b22565b8355505b6001600288020188555050505b50505050505050565b7f6563206d756c206661696c656400000000000000000000000000000000000000600082015250565b6000612c62600d836123ee565b9150612c6d82612c2c565b602082019050919050565b60006020820190508181036000830152612c9181612c55565b9050919050565b7f626e323536206164646974696f6e206661696c65640000000000000000000000600082015250565b6000612cce6015836123ee565b9150612cd982612c98565b602082019050919050565b60006020820190508181036000830152612cfd81612cc1565b9050919050565b7f4e487b7100000000000000000000000000000000000000000000000000000000600052601260045260246000fd5b6000612d3e82611ec4565b9150612d4983611ec4565b925082612d5957612d58612d04565b5b828206905092915050565b7f696e636f727265637420696e707574206c656e67746800000000000000000000600082015250565b6000612d9a6016836123ee565b9150612da582612d64565b602082019050919050565b60006020820190508181036000830152612dc981612d8d565b9050919050565b6000612ddb82611ec4565b9150612de683611ec4565b9250828202612df481611ec4565b91508282048414831517612e0b57612e0a61219e565b5b5092915050565b7f65632070616972696e67206661696c6564000000000000000000000000000000600082015250565b6000612e486011836123ee565b9150612e5382612e12565b602082019050919050565b60006020820190508181036000830152612e7781612e3b565b905091905056fea2646970667358221220475b9e9e49069f0b4cb3089aebdb1ce11eee6eeb77cd628878e223093a70c70064736f6c63430008130033",
  "immutableReferences": {},
  "source": "// SPDX-License-Identifier: MIT \npragma solidity ^0.8.19;\n\nimport \"./crypto/BN256G1.sol\";\n\ncontract BatchVerifier {\n\t\n    struct Signer {\n        address addr;      // eth address\n        string ipAddr;     // IP\n        string identity;   // identity\n\t\tuint256[2] pubKey;  // H(identity), H: string -> G1 point\n    }\n\n\tmapping (address => Signer) private SignerMap;\n\n\taddress[] private SignerArr;\n\n\taddress[] private SignOrder;\n\n\tbytes32 private message;\n\n\tuint256[] private randoms;\n\n\tuint256[2][] private hashPointSequence;\n\n\tuint256[] private checkPairingInput;\n\n\tenum SignType { NOTBATCH, BATCH1, BATCH2 }\n\n\tevent Sign(SignType typ, bytes32 message, address[] signOrder);\n\n\t// generator of G2\n\tuint256 private constant G2_GEN_X_RE =\n        0x198E9393920D483A7260BFB731FB5D25F1AA493335A9E71297E485B7AEF312C2;\n    uint256 private constant G2_GEN_X_IM =\n        0x1800DEEF121F1E76426A00665E5C4479674322D4F75EDADD46DEBD5CD992F6ED;\n    uint256 private constant G2_GEN_Y_RE =\n        0x275dc4a288d1afb3cbb1ac09187524c7db36395df7be3b99e673b13a075a65ec;\n    uint256 private constant G2_GEN_Y_IM =\n        0x1d9befcd05a5323e6da4d435f3b617cdb3af83285c2df711ef39c01571827f9d;\n\n\n// --------------------------------------------------------------------------------------------------------------------------------------------------------\n\n\n\tfunction register(string calldata ipAddr, string calldata identity, uint256[2] calldata pubKey) \n\t\texternal\n\t\tpayable\n\t{\n\t\trequire(SignerMap[msg.sender].addr != msg.sender, \"already\");\n\t\trequire(bytes(identity).length != 0, \"empty identity\");\n\t\tSigner storage signer = SignerMap[msg.sender];\n\t\tsigner.addr = msg.sender;\n\t\tsigner.ipAddr = ipAddr;\n\t\tsigner.identity = identity;\n\t\tsigner.pubKey = pubKey;\n\t\tSignerArr.push(msg.sender);\n\t}\n\n\tfunction requestSign(SignType typ, bytes32 _message, uint[] calldata signOrder) \n\t\texternal\n\t\tpayable\n\t{\n\t\tfor(uint i = 0; i < signOrder.length; i++){\n\t\t\tSignOrder.push(SignerArr[i]);\n\t\t}\n\t\tmessage = _message;\n\t\temit Sign(typ, message, SignOrder);\n\t}\n\n\tfunction submitNotBatch(uint256[4] calldata masterPubKey, uint256[2][] calldata signatures, uint256[4][] calldata setOfR)\n\t\texternal\n\t\tpayable\n\t{\n\n\t}\n\n\tfunction submitBatch1(uint256[4] calldata masterPubKey, uint256[2][] calldata signatures, uint256[4][] calldata setOfR)\n\t\texternal\n\t\tpayable\n\t{\n\t\trequire(SignOrder.length == signatures.length, \"sig nums error\");\n\t\tfor(uint i = 0; i < signatures.length; i++){\n\t\t\trandoms.push(uint256(keccak256(abi.encodePacked(signatures[i], block.prevrandao, msg.sender))));\n\t\t}\n\n\t\t// cal (s1 ^ p1) * (s2 ^ p2) * (s3 ^ p3) ...\n\t\tuint256 Sx = 0;\n\t\tuint256 Sy = 0;\n\t\tfor(uint i = 0; i < signatures.length; i++){\n\t\t\tuint256 tempX;\n\t\t\tuint256 tempY;\n\t\t\trequire(BN256G1.isOnCurve(signatures[0]), \"Not on curve\");\n\t\t\t(tempX, tempY) = BN256G1.mulPoint([signatures[i][0], signatures[i][1], randoms[i]]);\n\t\t\t(Sx, Sy) = BN256G1.addPoint([Sx, Sy, tempX, tempY]);\n\t\t}\n\n\t\t// cal H(ID1) * H(ID2) * H(ID3) ...\n\t\tuint256 idx = 0;\n\t\tuint256 idy = 0;\n\t\tfor(uint i = 0; i < SignOrder.length; i++){\n\t\t\tuint256[2] memory pubKey = getSignerPubkeyByAddress(SignOrder[i]);\n\t\t\trequire(BN256G1.isOnCurve([pubKey[0], pubKey[1]]), \"Pubkey Not on curve\");\n\t\t\t(pubKey[0], pubKey[1]) = BN256G1.mulPoint([pubKey[0], pubKey[1], randoms[i]]);\n\t\t\t(idx, idy) = BN256G1.addPoint([idx, idy, pubKey[0], pubKey[1]]);\n\t\t}\n\n\t\t// cal H(mi)\n\t\tuint256 firstX;\n\t\tuint256 firstY;\n\t\trequire(BN256G1.isOnCurve([BN256G1.GX, BN256G1.GY]), \"Gen Not on curve\");\n\t\t(firstX, firstY) = BN256G1.mulPoint([BN256G1.GX, BN256G1.GY, uint256(sha256(abi.encodePacked(message)))]);\n\n\t\tuint256[2] memory first;\n\t\t(first[0], first[1]) = BN256G1.mulPoint([firstX, firstY, randoms[0]]);\n\t\thashPointSequence.push(first);\n\n\t\tfor(uint i = 1; i < SignOrder.length; i++){\n\t\t\tuint256 tempX;\n\t\t\tuint256 tempY;\n\t\t\tbytes memory t = abi.encodePacked(message, signatures[i - 1][0]);\n\t\t\tt = abi.encodePacked(t, signatures[i - 1][1]);\n\t\t\tbytes32 res = sha256(t);\n\t\t\t(tempX, tempY) = BN256G1.mulPoint([BN256G1.GX, BN256G1.GY, uint256(res)]);\n\n\t\t\tuint256[2] memory hashPoint;\n\t\t\t(hashPoint[0], hashPoint[1]) = BN256G1.mulPoint([tempX, tempY, randoms[i]]);\n\t\t\thashPointSequence.push(hashPoint);\n\t\t}\n\n\t\tcheckPairingInput.push(Sx);\n\t\tcheckPairingInput.push(Sy);\n\t\tcheckPairingInput.push(G2_GEN_X_RE);\n\t\tcheckPairingInput.push(G2_GEN_X_IM);\n\t\tcheckPairingInput.push(G2_GEN_Y_RE);\n\t\tcheckPairingInput.push(G2_GEN_Y_IM);\n\n\t\tcheckPairingInput.push(idx);\n\t\tcheckPairingInput.push(idy);\n\t\tcheckPairingInput.push(masterPubKey[0]);\n\t\tcheckPairingInput.push(masterPubKey[1]);\n\t\tcheckPairingInput.push(masterPubKey[2]);\n\t\tcheckPairingInput.push(masterPubKey[3]);\n\n\t\tfor(uint i = 0; i < SignOrder.length; i++){\n\t\t\tcheckPairingInput.push(hashPointSequence[i][0]);\n\t\t\tcheckPairingInput.push(hashPointSequence[i][1]);\n\t\t\tcheckPairingInput.push(setOfR[i][0]);\n\t\t\tcheckPairingInput.push(setOfR[i][1]);\n\t\t\tcheckPairingInput.push(setOfR[i][2]);\n\t\t\tcheckPairingInput.push(setOfR[i][3]);\n\t\t}\n\n\t\trequire(BN256G1.bn256CheckPairingBatch(checkPairingInput), \"sig verify fail\");\n\n\t\tdelete SignOrder;\n\t\tdelete randoms;\n\t\tdelete hashPointSequence;\n\t\tdelete checkPairingInput;\n\t}\n\n\tfunction submitBatch2()\n\t\texternal\n\t\tpayable\n\t{\n\n\t}\n\n\tfunction getSignerByAddress(address addr) \n\t\tpublic\n\t\tview\n\t\treturns (Signer memory)\n\t{\n\t\treturn SignerMap[addr];\n\t}\n\n\tfunction getSignerPubkeyByAddress(address addr) \n\t\tpublic\n\t\tview\n\t\treturns (uint256[2] memory)\n\t{\n\t\treturn SignerMap[addr].pubKey;\n\t}\n}\n",
  "sourcePath": "/home/yuhang/OracleProject/batch-verify-IBE-system/batchverifier/contracts/BatchVerifier.sol",
  "compiler": {
    "name": "solc",
    "version": "0.8.19+commit.7dd6d404.Emscripten.clang"
  },
  "schemaVersion": "3.4.16",
  "updatedAt": "2023-12-27T05:45:47.555Z",
  "networkType": "ethereum",
  "devdoc": {
    "kind": "dev",
    "methods": {},
    "version": 1
  },
  "userdoc": {
    "kind": "user",
    "methods": {},
    "version": 1
  }
}