{
  "contractName": "Registry",
  "abi": [
    {
      "anonymous": false,
      "inputs": [
        {
          "indexed": false,
          "internalType": "enum Registry.SignType",
          "name": "typ",
          "type": "uint8"
        },
        {
          "indexed": false,
          "internalType": "bytes32",
          "name": "message",
          "type": "bytes32"
        },
        {
          "indexed": false,
          "internalType": "address[]",
          "name": "signOrder",
          "type": "address[]"
        }
      ],
      "name": "Sign",
      "type": "event"
    },
    {
      "inputs": [
        {
          "internalType": "string",
          "name": "ipAddr",
          "type": "string"
        },
        {
          "internalType": "string",
          "name": "identity",
          "type": "string"
        },
        {
          "internalType": "uint256[2]",
          "name": "pubKey",
          "type": "uint256[2]"
        }
      ],
      "name": "register",
      "outputs": [],
      "stateMutability": "payable",
      "type": "function",
      "payable": true
    },
    {
      "inputs": [
        {
          "internalType": "address",
          "name": "addr",
          "type": "address"
        }
      ],
      "name": "getSignerByAddress",
      "outputs": [
        {
          "components": [
            {
              "internalType": "address",
              "name": "addr",
              "type": "address"
            },
            {
              "internalType": "string",
              "name": "ipAddr",
              "type": "string"
            },
            {
              "internalType": "string",
              "name": "identity",
              "type": "string"
            },
            {
              "internalType": "uint256[2]",
              "name": "pubKey",
              "type": "uint256[2]"
            }
          ],
          "internalType": "struct Registry.Signer",
          "name": "",
          "type": "tuple"
        }
      ],
      "stateMutability": "view",
      "type": "function",
      "constant": true
    },
    {
      "inputs": [
        {
          "internalType": "address",
          "name": "addr",
          "type": "address"
        }
      ],
      "name": "getSignerPubkeyByAddress",
      "outputs": [
        {
          "internalType": "uint256[2]",
          "name": "",
          "type": "uint256[2]"
        }
      ],
      "stateMutability": "view",
      "type": "function",
      "constant": true
    },
    {
      "inputs": [
        {
          "internalType": "enum Registry.SignType",
          "name": "typ",
          "type": "uint8"
        },
        {
          "internalType": "bytes32",
          "name": "_message",
          "type": "bytes32"
        },
        {
          "internalType": "uint256[]",
          "name": "signOrder",
          "type": "uint256[]"
        }
      ],
      "name": "requestSign",
      "outputs": [],
      "stateMutability": "payable",
      "type": "function",
      "payable": true
    },
    {
      "inputs": [],
      "name": "getMessage",
      "outputs": [
        {
          "internalType": "bytes32",
          "name": "",
          "type": "bytes32"
        }
      ],
      "stateMutability": "view",
      "type": "function",
      "constant": true
    },
    {
      "inputs": [],
      "name": "getSignOrder",
      "outputs": [
        {
          "internalType": "address[]",
          "name": "",
          "type": "address[]"
        }
      ],
      "stateMutability": "view",
      "type": "function",
      "constant": true
    }
  ],
  "bytecode": "0x608060405234801561001057600080fd5b50611588806100206000396000f3fe6080604052600436106100555760003560e01c80630a1bc4501461005a57806314b0845b14610085578063c50bafcc146100a1578063ce6d41de146100de578063d55bef0d14610109578063d999dc7914610125575b600080fd5b34801561006657600080fd5b5061006f610162565b60405161007c91906109ce565b60405180910390f35b61009f600480360381019061009a9190610aba565b6101f0565b005b3480156100ad57600080fd5b506100c860048036038101906100c39190610b5a565b61030c565b6040516100d59190610d36565b60405180910390f35b3480156100ea57600080fd5b506100f3610523565b6040516101009190610d67565b60405180910390f35b610123600480360381019061011e9190610dfa565b61052d565b005b34801561013157600080fd5b5061014c60048036038101906101479190610b5a565b61076e565b6040516101599190610ef1565b60405180910390f35b606060028054806020026020016040519081016040528092919081815260200182805480156101e657602002820191906000526020600020905b8160009054906101000a900473ffffffffffffffffffffffffffffffffffffffff1673ffffffffffffffffffffffffffffffffffffffff168152602001906001019080831161019c575b5050505050905090565b600260006101fe91906107fa565b60005b828290508110156102c05760026001828154811061022257610221610f0c565b5b9060005260206000200160009054906101000a900473ffffffffffffffffffffffffffffffffffffffff169080600181540180825580915050600190039060005260206000200160009091909190916101000a81548173ffffffffffffffffffffffffffffffffffffffff021916908373ffffffffffffffffffffffffffffffffffffffff16021790555080806102b890610f6a565b915050610201565b50826003819055507fe61643f97fc9c5788b5a2f6bd92fa52f4bd9edddb496947f35113e51f3089b1f8460035460026040516102fe93929190611115565b60405180910390a150505050565b61031461081b565b6000808373ffffffffffffffffffffffffffffffffffffffff1673ffffffffffffffffffffffffffffffffffffffff1681526020019081526020016000206040518060800160405290816000820160009054906101000a900473ffffffffffffffffffffffffffffffffffffffff1673ffffffffffffffffffffffffffffffffffffffff1673ffffffffffffffffffffffffffffffffffffffff1681526020016001820180546103c390611182565b80601f01602080910402602001604051908101604052809291908181526020018280546103ef90611182565b801561043c5780601f106104115761010080835404028352916020019161043c565b820191906000526020600020905b81548152906001019060200180831161041f57829003601f168201915b5050505050815260200160028201805461045590611182565b80601f016020809104026020016040519081016040528092919081815260200182805461048190611182565b80156104ce5780601f106104a3576101008083540402835291602001916104ce565b820191906000526020600020905b8154815290600101906020018083116104b157829003601f168201915b5050505050815260200160038201600280602002604051908101604052809291908260028015610513576020028201915b8154815260200190600101908083116104ff575b5050505050815250509050919050565b6000600354905090565b3373ffffffffffffffffffffffffffffffffffffffff166000803373ffffffffffffffffffffffffffffffffffffffff1673ffffffffffffffffffffffffffffffffffffffff16815260200190815260200160002060000160009054906101000a900473ffffffffffffffffffffffffffffffffffffffff1673ffffffffffffffffffffffffffffffffffffffff16036105fc576040517f08c379a00000000000000000000000000000000000000000000000000000000081526004016105f390611210565b60405180910390fd5b60008383905003610642576040517f08c379a00000000000000000000000000000000000000000000000000000000081526004016106399061127c565b60405180910390fd5b60008060003373ffffffffffffffffffffffffffffffffffffffff1673ffffffffffffffffffffffffffffffffffffffff1681526020019081526020016000209050338160000160006101000a81548173ffffffffffffffffffffffffffffffffffffffff021916908373ffffffffffffffffffffffffffffffffffffffff16021790555085858260010191826106da929190611482565b5083838260020191826106ee929190611482565b50818160030190600261070292919061085f565b506001339080600181540180825580915050600190039060005260206000200160009091909190916101000a81548173ffffffffffffffffffffffffffffffffffffffff021916908373ffffffffffffffffffffffffffffffffffffffff160217905550505050505050565b61077661089f565b6000808373ffffffffffffffffffffffffffffffffffffffff1673ffffffffffffffffffffffffffffffffffffffff1681526020019081526020016000206003016002806020026040519081016040528092919082600280156107ee576020028201915b8154815260200190600101908083116107da575b50505050509050919050565b508054600082559060005260206000209081019061081891906108c1565b50565b6040518060800160405280600073ffffffffffffffffffffffffffffffffffffffff168152602001606081526020016060815260200161085961089f565b81525090565b826002810192821561088e579160200282015b8281111561088d578235825591602001919060010190610872565b5b50905061089b91906108c1565b5090565b6040518060400160405280600290602082028036833780820191505090505090565b5b808211156108da5760008160009055506001016108c2565b5090565b600081519050919050565b600082825260208201905092915050565b6000819050602082019050919050565b600073ffffffffffffffffffffffffffffffffffffffff82169050919050565b60006109358261090a565b9050919050565b6109458161092a565b82525050565b6000610957838361093c565b60208301905092915050565b6000602082019050919050565b600061097b826108de565b61098581856108e9565b9350610990836108fa565b8060005b838110156109c15781516109a8888261094b565b97506109b383610963565b925050600181019050610994565b5085935050505092915050565b600060208201905081810360008301526109e88184610970565b905092915050565b600080fd5b600080fd5b60028110610a0757600080fd5b50565b600081359050610a19816109fa565b92915050565b6000819050919050565b610a3281610a1f565b8114610a3d57600080fd5b50565b600081359050610a4f81610a29565b92915050565b600080fd5b600080fd5b600080fd5b60008083601f840112610a7a57610a79610a55565b5b8235905067ffffffffffffffff811115610a9757610a96610a5a565b5b602083019150836020820283011115610ab357610ab2610a5f565b5b9250929050565b60008060008060608587031215610ad457610ad36109f0565b5b6000610ae287828801610a0a565b9450506020610af387828801610a40565b935050604085013567ffffffffffffffff811115610b1457610b136109f5565b5b610b2087828801610a64565b925092505092959194509250565b610b378161092a565b8114610b4257600080fd5b50565b600081359050610b5481610b2e565b92915050565b600060208284031215610b7057610b6f6109f0565b5b6000610b7e84828501610b45565b91505092915050565b600081519050919050565b600082825260208201905092915050565b60005b83811015610bc1578082015181840152602081019050610ba6565b60008484015250505050565b6000601f19601f8301169050919050565b6000610be982610b87565b610bf38185610b92565b9350610c03818560208601610ba3565b610c0c81610bcd565b840191505092915050565b600060029050919050565b600081905092915050565b6000819050919050565b6000819050919050565b610c4a81610c37565b82525050565b6000610c5c8383610c41565b60208301905092915050565b6000602082019050919050565b610c7e81610c17565b610c888184610c22565b9250610c9382610c2d565b8060005b83811015610cc4578151610cab8782610c50565b9650610cb683610c68565b925050600181019050610c97565b505050505050565b600060a083016000830151610ce4600086018261093c565b5060208301518482036020860152610cfc8282610bde565b91505060408301518482036040860152610d168282610bde565b9150506060830151610d2b6060860182610c75565b508091505092915050565b60006020820190508181036000830152610d508184610ccc565b905092915050565b610d6181610a1f565b82525050565b6000602082019050610d7c6000830184610d58565b92915050565b60008083601f840112610d9857610d97610a55565b5b8235905067ffffffffffffffff811115610db557610db4610a5a565b5b602083019150836001820283011115610dd157610dd0610a5f565b5b9250929050565b600081905082602060020282011115610df457610df3610a5f565b5b92915050565b600080600080600060808688031215610e1657610e156109f0565b5b600086013567ffffffffffffffff811115610e3457610e336109f5565b5b610e4088828901610d82565b9550955050602086013567ffffffffffffffff811115610e6357610e626109f5565b5b610e6f88828901610d82565b93509350506040610e8288828901610dd8565b9150509295509295909350565b600081905092915050565b610ea381610c17565b610ead8184610e8f565b9250610eb882610c2d565b8060005b83811015610ee9578151610ed08782610c50565b9650610edb83610c68565b925050600181019050610ebc565b505050505050565b6000604082019050610f066000830184610e9a565b92915050565b7f4e487b7100000000000000000000000000000000000000000000000000000000600052603260045260246000fd5b7f4e487b7100000000000000000000000000000000000000000000000000000000600052601160045260246000fd5b6000610f7582610c37565b91507fffffffffffffffffffffffffffffffffffffffffffffffffffffffffffffffff8203610fa757610fa6610f3b565b5b600182019050919050565b7f4e487b7100000000000000000000000000000000000000000000000000000000600052602160045260246000fd5b60028110610ff257610ff1610fb2565b5b50565b600081905061100382610fe1565b919050565b600061101382610ff5565b9050919050565b61102381611008565b82525050565b600081549050919050565b60008190508160005260206000209050919050565b60008160001c9050919050565b600073ffffffffffffffffffffffffffffffffffffffff82169050919050565b600061108961108483611049565b611056565b9050919050565b600061109c8254611076565b9050919050565b6000600182019050919050565b60006110bb82611029565b6110c581856108e9565b93506110d083611034565b8060005b83811015611108576110e582611090565b6110ef888261094b565b97506110fa836110a3565b9250506001810190506110d4565b5085935050505092915050565b600060608201905061112a600083018661101a565b6111376020830185610d58565b818103604083015261114981846110b0565b9050949350505050565b7f4e487b7100000000000000000000000000000000000000000000000000000000600052602260045260246000fd5b6000600282049050600182168061119a57607f821691505b6020821081036111ad576111ac611153565b5b50919050565b600082825260208201905092915050565b7f616c726561647900000000000000000000000000000000000000000000000000600082015250565b60006111fa6007836111b3565b9150611205826111c4565b602082019050919050565b60006020820190508181036000830152611229816111ed565b9050919050565b7f656d707479206964656e74697479000000000000000000000000000000000000600082015250565b6000611266600e836111b3565b915061127182611230565b602082019050919050565b6000602082019050818103600083015261129581611259565b9050919050565b600082905092915050565b7f4e487b7100000000000000000000000000000000000000000000000000000000600052604160045260246000fd5b60008190508160005260206000209050919050565b60006020601f8301049050919050565b600082821b905092915050565b6000600883026113387fffffffffffffffffffffffffffffffffffffffffffffffffffffffffffffffff826112fb565b61134286836112fb565b95508019841693508086168417925050509392505050565b6000819050919050565b600061137f61137a61137584610c37565b61135a565b610c37565b9050919050565b6000819050919050565b61139983611364565b6113ad6113a582611386565b848454611308565b825550505050565b600090565b6113c26113b5565b6113cd818484611390565b505050565b5b818110156113f1576113e66000826113ba565b6001810190506113d3565b5050565b601f82111561143657611407816112d6565b611410846112eb565b8101602085101561141f578190505b61143361142b856112eb565b8301826113d2565b50505b505050565b600082821c905092915050565b60006114596000198460080261143b565b1980831691505092915050565b60006114728383611448565b9150826002028217905092915050565b61148c838361129c565b67ffffffffffffffff8111156114a5576114a46112a7565b5b6114af8254611182565b6114ba8282856113f5565b6000601f8311600181146114e957600084156114d7578287013590505b6114e18582611466565b865550611549565b601f1984166114f7866112d6565b60005b8281101561151f578489013582556001820191506020850194506020810190506114fa565b8683101561153c5784890135611538601f891682611448565b8355505b6001600288020188555050505b5050505050505056fea26469706673582212200d844d83015c53770bcb1dbed9e990b04d71e606a6c26fb991961f89f36d4e1864736f6c63430008130033",
  "immutableReferences": {},
  "source": "// SPDX-License-Identifier: MIT\npragma solidity ^0.8.19;\n\ncontract Registry {\n    struct Signer {\n        address addr; // eth address\n        string ipAddr; // IP\n        string identity; // identity\n        uint256[2] pubKey; // H(identity), H: string -> G1 point\n    }\n\n    mapping(address => Signer) private SignerMap;\n\n    address[] private SignerArr;\n\n    address[] private SignOrder;\n\n    bytes32 private message;\n\n\n    enum SignType {\n        SAKAI,\n        IBSAS\n    }\n\n    event Sign(SignType typ, bytes32 message, address[] signOrder);\n\n    // --------------------------------------------------------------------------------------------------------------------------------------------------------\n\n    function register(\n        string calldata ipAddr,\n        string calldata identity,\n        uint256[2] calldata pubKey\n    ) external payable {\n        require(SignerMap[msg.sender].addr != msg.sender, \"already\");\n        require(bytes(identity).length != 0, \"empty identity\");\n        Signer storage signer = SignerMap[msg.sender];\n        signer.addr = msg.sender;\n        signer.ipAddr = ipAddr;\n        signer.identity = identity;\n        signer.pubKey = pubKey;\n        SignerArr.push(msg.sender);\n    }\n\n    function getSignerByAddress(\n        address addr\n    ) public view returns (Signer memory) {\n        return SignerMap[addr];\n    }\n\n    function getSignerPubkeyByAddress(\n        address addr\n    ) public view returns (uint256[2] memory) {\n        return SignerMap[addr].pubKey;\n    }\n\n    function requestSign(\n        SignType typ,\n        bytes32 _message,\n        uint[] calldata signOrder\n    ) external payable {\n        delete SignOrder;\n        for (uint i = 0; i < signOrder.length; i++) {\n            SignOrder.push(SignerArr[i]);\n        }\n        message = _message;\n        emit Sign(typ, message, SignOrder);\n    }\n\n    function getMessage() public view returns (bytes32) {\n        return message;\n    }\n\n    function getSignOrder() public view returns (address[] memory) {\n        return SignOrder;\n    }\n}\n",
  "sourcePath": "/home/w1tness/Code/Crypto/batch-verify-IBE-system/batchverifier/contracts/Registry.sol",
  "compiler": {
    "name": "solc",
    "version": "0.8.19+commit.7dd6d404.Emscripten.clang"
  },
  "schemaVersion": "3.4.16",
  "updatedAt": "2023-12-30T15:26:05.174Z",
  "networkType": "ethereum",
  "devdoc": {
    "kind": "dev",
    "methods": {},
    "version": 1
  },
  "userdoc": {
    "kind": "user",
    "methods": {},
    "version": 1
  }
}