{
  "contractName": "Sakai",
  "abi": [
    {
      "inputs": [
        {
          "internalType": "address",
          "name": "_registryContract",
          "type": "address"
        }
      ],
      "stateMutability": "nonpayable",
      "type": "constructor"
    },
    {
      "inputs": [
        {
          "internalType": "uint256[4]",
          "name": "masterPubKey",
          "type": "uint256[4]"
        },
        {
          "internalType": "uint256[2][]",
          "name": "signatures",
          "type": "uint256[2][]"
        },
        {
          "internalType": "uint256[4][]",
          "name": "setOfR",
          "type": "uint256[4][]"
        }
      ],
      "name": "submit",
      "outputs": [],
      "stateMutability": "payable",
      "type": "function",
      "payable": true
    }
  ],
  "bytecode": "0x60806040523480156200001157600080fd5b5060405162001e0138038062001e018339818101604052810190620000379190620000e9565b80600360006101000a81548173ffffffffffffffffffffffffffffffffffffffff021916908373ffffffffffffffffffffffffffffffffffffffff160217905550506200011b565b600080fd5b600073ffffffffffffffffffffffffffffffffffffffff82169050919050565b6000620000b18262000084565b9050919050565b620000c381620000a4565b8114620000cf57600080fd5b50565b600081519050620000e381620000b8565b92915050565b6000602082840312156200010257620001016200007f565b5b60006200011284828501620000d2565b91505092915050565b611cd6806200012b6000396000f3fe60806040526004361061001e5760003560e01c8063abda334414610023575b600080fd5b61003d6004803603810190610038919061129f565b61003f565b005b6000600360009054906101000a900473ffffffffffffffffffffffffffffffffffffffff1673ffffffffffffffffffffffffffffffffffffffff1663ce6d41de6040518163ffffffff1660e01b8152600401602060405180830381865afa1580156100ae573d6000803e3d6000fd5b505050506040513d601f19601f820116820180604052508101906100d2919061136a565b90506000600360009054906101000a900473ffffffffffffffffffffffffffffffffffffffff1673ffffffffffffffffffffffffffffffffffffffff16630a1bc4506040518163ffffffff1660e01b8152600401600060405180830381865afa158015610143573d6000803e3d6000fd5b505050506040513d6000823e3d601f19601f8201168201806040525081019061016c9190611544565b9050858590508151146101b4576040517f08c379a00000000000000000000000000000000000000000000000000000000081526004016101ab906115ea565b60405180910390fd5b60005b868690508110156102435760008787838181106101d7576101d661160a565b5b90506040020144336040516020016101f1939291906116c5565b6040516020818303038152906040528051906020012060001c9080600181540180825580915050600190039060005260206000200160009091909190915055808061023b90611731565b9150506101b7565b5060008060005b88889050811015610347576000806102f960405180606001604052808d8d878181106102795761027861160a565b5b9050604002016000600281106102925761029161160a565b5b602002013581526020018d8d878181106102af576102ae61160a565b5b9050604002016001600281106102c8576102c761160a565b5b60200201358152602001600086815481106102e6576102e561160a565b5b9060005260206000200154815250610e7b565b809250819350505061032a604051806080016040528087815260200186815260200184815260200183815250610f15565b80955081965050505050808061033f90611731565b91505061024a565b506002829080600181540180825580915050600190039060005260206000200160009091909190915055600281908060018154018082558091505060019003906000526020600020016000909190919091505560027f198e9393920d483a7260bfb731fb5d25f1aa493335a9e71297e485b7aef312c2908060018154018082558091505060019003906000526020600020016000909190919091505560027f1800deef121f1e76426a00665e5c4479674322d4f75edadd46debd5cd992f6ed908060018154018082558091505060019003906000526020600020016000909190919091505560027f275dc4a288d1afb3cbb1ac09187524c7db36395df7be3b99e673b13a075a65ec908060018154018082558091505060019003906000526020600020016000909190919091505560027f1d9befcd05a5323e6da4d435f3b617cdb3af83285c2df711ef39c01571827f9d9080600181540180825580915050600190039060005260206000200160009091909190915055505060008060005b888890508110156106aa576000600360009054906101000a900473ffffffffffffffffffffffffffffffffffffffff1673ffffffffffffffffffffffffffffffffffffffff1663d999dc798684815181106105245761052361160a565b5b60200260200101516040518263ffffffff1660e01b81526004016105489190611788565b6040805180830381865afa158015610564573d6000803e3d6000fd5b505050506040513d601f19601f820116820180604052508101906105889190611880565b90506105fb6040518060600160405280836000600281106105ac576105ab61160a565b5b60200201518152602001836001600281106105ca576105c961160a565b5b60200201518152602001600085815481106105e8576105e761160a565b5b9060005260206000200154815250610e7b565b8260006002811061060f5761060e61160a565b5b60200201836001600281106106275761062661160a565b5b602002018281525082815250505061068e6040518060800160405280868152602001858152602001836000600281106106635761066261160a565b5b60200201518152602001836001600281106106815761068061160a565b5b6020020151815250610f15565b80945081955050505080806106a290611731565b9150506104c6565b50600282908060018154018082558091505060019003906000526020600020016000909190919091505560028190806001815401808255809150506001900390600052602060002001600090919091909150556002896001600481106107135761071261160a565b5b602002013590806001815401808255809150506001900390600052602060002001600090919091909150556002896000600481106107545761075361160a565b5b602002013590806001815401808255809150506001900390600052602060002001600090919091909150556002896003600481106107955761079461160a565b5b602002013590806001815401808255809150506001900390600052602060002001600090919091909150556002896002600481106107d6576107d561160a565b5b60200201359080600181540180825580915050600190039060005260206000200160009091909190915055505060008061089c6040518060600160405280600181526020016002815260200160028760405160200161083591906118ce565b604051602081830303815290604052604051610851919061195a565b602060405180830381855afa15801561086e573d6000803e3d6000fd5b5050506040513d601f19601f82011682018060405250810190610891919061136a565b60001c815250610e7b565b80925081935050506108ac611096565b6108ed6040518060600160405280858152602001848152602001600080815481106108da576108d961160a565b5b9060005260206000200154815250610e7b565b826000600281106109015761090061160a565b5b60200201836001600281106109195761091861160a565b5b602002018281525082815250505060018190806001815401808255809150506001900390600052602060002090600202016000909190919091509060026109619291906110b8565b506000600190505b8451811015610b695760008060006002898e8e6001886109899190611971565b8181106109995761099861160a565b5b9050604002016000600281106109b2576109b161160a565b5b60200201358f8f6001896109c69190611971565b8181106109d6576109d561160a565b5b9050604002016001600281106109ef576109ee61160a565b5b6020020135604051602001610a06939291906119a5565b604051602081830303815290604052604051610a22919061195a565b602060405180830381855afa158015610a3f573d6000803e3d6000fd5b5050506040513d601f19601f82011682018060405250810190610a62919061136a565b9050610a8c604051806060016040528060018152602001600281526020018360001c815250610e7b565b8093508194505050610a9c611096565b610add604051806060016040528086815260200185815260200160008881548110610aca57610ac961160a565b5b9060005260206000200154815250610e7b565b82600060028110610af157610af061160a565b5b6020020183600160028110610b0957610b0861160a565b5b60200201828152508281525050506001819080600181540180825580915050600190039060005260206000209060020201600090919091909150906002610b519291906110b8565b50505050508080610b6190611731565b915050610969565b5050505060005b86869050811015610db057600260018281548110610b9157610b9061160a565b5b9060005260206000209060020201600060028110610bb257610bb161160a565b5b01549080600181540180825580915050600190039060005260206000200160009091909190915055600260018281548110610bf057610bef61160a565b5b9060005260206000209060020201600160028110610c1157610c1061160a565b5b015490806001815401808255809150506001900390600052602060002001600090919091909150556002858583818110610c4e57610c4d61160a565b5b905060800201600160048110610c6757610c6661160a565b5b602002013590806001815401808255809150506001900390600052602060002001600090919091909150556002858583818110610ca757610ca661160a565b5b905060800201600060048110610cc057610cbf61160a565b5b602002013590806001815401808255809150506001900390600052602060002001600090919091909150556002858583818110610d0057610cff61160a565b5b905060800201600360048110610d1957610d1861160a565b5b602002013590806001815401808255809150506001900390600052602060002001600090919091909150556002858583818110610d5957610d5861160a565b5b905060800201600260048110610d7257610d7161160a565b5b602002013590806001815401808255809150506001900390600052602060002001600090919091909150558080610da890611731565b915050610b70565b50610e0a6002805480602002602001604051908101604052809291908181526020018280548015610e0057602002820191906000526020600020905b815481526020019060010190808311610dec575b5050505050610faf565b610e49576040517f08c379a0000000000000000000000000000000000000000000000000000000008152600401610e4090611a2e565b60405180910390fd5b600080610e5691906110f8565b60016000610e649190611119565b60026000610e7291906110f8565b50505050505050565b6000806000610e88611096565b60408160608760006007600019f1915081610ed8576040517f08c379a0000000000000000000000000000000000000000000000000000000008152600401610ecf90611a9a565b60405180910390fd5b80600060028110610eec57610eeb61160a565b5b602002015181600160028110610f0557610f0461160a565b5b6020020151935093505050915091565b6000806000610f22611096565b60408160808760006006600019f1915081610f72576040517f08c379a0000000000000000000000000000000000000000000000000000000008152600401610f6990611b06565b60405180910390fd5b80600060028110610f8657610f8561160a565b5b602002015181600160028110610f9f57610f9e61160a565b5b6020020151935093505050915091565b6000610fb961113d565b60008060068551610fca9190611b55565b1461100a576040517f08c379a000000000000000000000000000000000000000000000000000000000815260040161100190611bd2565b60405180910390fd5b60006020855161101a9190611bf2565b90506020838260208801600060086107d05a03f1915081611070576040517f08c379a000000000000000000000000000000000000000000000000000000000815260040161106790611c80565b60405180910390fd5b6001836000600181106110865761108561160a565b5b6020020151149350505050919050565b6040518060400160405280600290602082028036833780820191505090505090565b82600281019282156110e7579160200282015b828111156110e65782518255916020019190600101906110cb565b5b5090506110f4919061115f565b5090565b5080546000825590600052602060002090810190611116919061115f565b50565b508054600082556002029060005260206000209081019061113a919061117c565b50565b6040518060200160405280600190602082028036833780820191505090505090565b5b80821115611178576000816000905550600101611160565b5090565b5b8082111561119c576000818161119391906111a0565b5060020161117d565b5090565b506000815560010160009055565b6000604051905090565b600080fd5b600080fd5b600080fd5b6000819050826020600402820111156111e3576111e26111c2565b5b92915050565b600080fd5b600080fd5b60008083601f840112611209576112086111e9565b5b8235905067ffffffffffffffff811115611226576112256111ee565b5b602083019150836040820283011115611242576112416111c2565b5b9250929050565b60008083601f84011261125f5761125e6111e9565b5b8235905067ffffffffffffffff81111561127c5761127b6111ee565b5b602083019150836080820283011115611298576112976111c2565b5b9250929050565b600080600080600060c086880312156112bb576112ba6111b8565b5b60006112c9888289016111c7565b955050608086013567ffffffffffffffff8111156112ea576112e96111bd565b5b6112f6888289016111f3565b945094505060a086013567ffffffffffffffff811115611319576113186111bd565b5b61132588828901611249565b92509250509295509295909350565b6000819050919050565b61134781611334565b811461135257600080fd5b50565b6000815190506113648161133e565b92915050565b6000602082840312156113805761137f6111b8565b5b600061138e84828501611355565b91505092915050565b6000601f19601f8301169050919050565b7f4e487b7100000000000000000000000000000000000000000000000000000000600052604160045260246000fd5b6113e082611397565b810181811067ffffffffffffffff821117156113ff576113fe6113a8565b5b80604052505050565b60006114126111ae565b905061141e82826113d7565b919050565b600067ffffffffffffffff82111561143e5761143d6113a8565b5b602082029050602081019050919050565b600073ffffffffffffffffffffffffffffffffffffffff82169050919050565b600061147a8261144f565b9050919050565b61148a8161146f565b811461149557600080fd5b50565b6000815190506114a781611481565b92915050565b60006114c06114bb84611423565b611408565b905080838252602082019050602084028301858111156114e3576114e26111c2565b5b835b8181101561150c57806114f88882611498565b8452602084019350506020810190506114e5565b5050509392505050565b600082601f83011261152b5761152a6111e9565b5b815161153b8482602086016114ad565b91505092915050565b60006020828403121561155a576115596111b8565b5b600082015167ffffffffffffffff811115611578576115776111bd565b5b61158484828501611516565b91505092915050565b600082825260208201905092915050565b7f736967206e756d73206572726f72000000000000000000000000000000000000600082015250565b60006115d4600e8361158d565b91506115df8261159e565b602082019050919050565b60006020820190508181036000830152611603816115c7565b9050919050565b7f4e487b7100000000000000000000000000000000000000000000000000000000600052603260045260246000fd5b82818337505050565b61164e60408383611639565b5050565b6000819050919050565b6000819050919050565b61167761167282611652565b61165c565b82525050565b60008160601b9050919050565b60006116958261167d565b9050919050565b60006116a78261168a565b9050919050565b6116bf6116ba8261146f565b61169c565b82525050565b60006116d18286611642565b6040820191506116e18285611666565b6020820191506116f182846116ae565b601482019150819050949350505050565b7f4e487b7100000000000000000000000000000000000000000000000000000000600052601160045260246000fd5b600061173c82611652565b91507fffffffffffffffffffffffffffffffffffffffffffffffffffffffffffffffff820361176e5761176d611702565b5b600182019050919050565b6117828161146f565b82525050565b600060208201905061179d6000830184611779565b92915050565b600067ffffffffffffffff8211156117be576117bd6113a8565b5b602082029050919050565b6117d281611652565b81146117dd57600080fd5b50565b6000815190506117ef816117c9565b92915050565b6000611808611803846117a3565b611408565b90508060208402830185811115611822576118216111c2565b5b835b8181101561184b578061183788826117e0565b845260208401935050602081019050611824565b5050509392505050565b600082601f83011261186a576118696111e9565b5b60026118778482856117f5565b91505092915050565b600060408284031215611896576118956111b8565b5b60006118a484828501611855565b91505092915050565b6000819050919050565b6118c86118c382611334565b6118ad565b82525050565b60006118da82846118b7565b60208201915081905092915050565b600081519050919050565b600081905092915050565b60005b8381101561191d578082015181840152602081019050611902565b60008484015250505050565b6000611934826118e9565b61193e81856118f4565b935061194e8185602086016118ff565b80840191505092915050565b60006119668284611929565b915081905092915050565b600061197c82611652565b915061198783611652565b925082820390508181111561199f5761199e611702565b5b92915050565b60006119b182866118b7565b6020820191506119c18285611666565b6020820191506119d18284611666565b602082019150819050949350505050565b7f73696720766572696679206661696c0000000000000000000000000000000000600082015250565b6000611a18600f8361158d565b9150611a23826119e2565b602082019050919050565b60006020820190508181036000830152611a4781611a0b565b9050919050565b7f6563206d756c206661696c656400000000000000000000000000000000000000600082015250565b6000611a84600d8361158d565b9150611a8f82611a4e565b602082019050919050565b60006020820190508181036000830152611ab381611a77565b9050919050565b7f626e323536206164646974696f6e206661696c65640000000000000000000000600082015250565b6000611af060158361158d565b9150611afb82611aba565b602082019050919050565b60006020820190508181036000830152611b1f81611ae3565b9050919050565b7f4e487b7100000000000000000000000000000000000000000000000000000000600052601260045260246000fd5b6000611b6082611652565b9150611b6b83611652565b925082611b7b57611b7a611b26565b5b828206905092915050565b7f696e636f727265637420696e707574206c656e67746800000000000000000000600082015250565b6000611bbc60168361158d565b9150611bc782611b86565b602082019050919050565b60006020820190508181036000830152611beb81611baf565b9050919050565b6000611bfd82611652565b9150611c0883611652565b9250828202611c1681611652565b91508282048414831517611c2d57611c2c611702565b5b5092915050565b7f65632070616972696e67206661696c6564000000000000000000000000000000600082015250565b6000611c6a60118361158d565b9150611c7582611c34565b602082019050919050565b60006020820190508181036000830152611c9981611c5d565b905091905056fea26469706673582212202e6037f8948502bf1aa1340dd72d1fcf24bfb8cdf4f3c2595c15b8dceef05be064736f6c63430008130033",
  "immutableReferences": {},
  "source": "// SPDX-License-Identifier: MIT\npragma solidity ^0.8.19;\n\nimport \"./crypto/BN256G1.sol\";\nimport \"./crypto/BN256G2.sol\";\nimport \"./Registry.sol\";\n\ncontract Sakai {\n\n    uint256[] private randoms;\n\n    uint256[2][] private hashPointSequence;\n\n    uint256[] private checkPairingInput;\n\n    Registry private registry;\n\n    constructor(address _registryContract) {\n        registry = Registry(_registryContract);\n    }\n\n    // --------------------------------------------------------------------------------------------------------------------------------------------------------\n\n\n    function submit(\n        uint256[4] calldata masterPubKey,\n        uint256[2][] calldata signatures,\n        uint256[4][] calldata setOfR\n    ) external payable {\n        bytes32 message = registry.getMessage();\n        address[] memory SignOrder = registry.getSignOrder();\n        require(SignOrder.length == signatures.length, \"sig nums error\");\n        \n        for (uint i = 0; i < signatures.length; i++) {\n            randoms.push(\n                uint256(\n                    keccak256(\n                        abi.encodePacked(\n                            signatures[i],\n                            block.prevrandao,\n                            msg.sender\n                        )\n                    )\n                )\n            );\n        }\n\n        // cal (s1 ^ p1) * (s2 ^ p2) * (s3 ^ p3) ...\n        {\n            uint256 Sx = 0;\n            uint256 Sy = 0;\n            for (uint i = 0; i < signatures.length; i++) {\n                uint256 tempX;\n                uint256 tempY;\n                (tempX, tempY) = BN256G1.mulPoint(\n                    [signatures[i][0], signatures[i][1], randoms[i]]\n                );\n                (Sx, Sy) = BN256G1.addPoint([Sx, Sy, tempX, tempY]);\n            }\n            checkPairingInput.push(Sx);\n            checkPairingInput.push(Sy);\n            checkPairingInput.push(BN256G2.G2_NEG_X_IM);\n            checkPairingInput.push(BN256G2.G2_NEG_X_RE);\n            checkPairingInput.push(BN256G2.G2_NEG_Y_IM);\n            checkPairingInput.push(BN256G2.G2_NEG_Y_RE);\n        }\n\n        // cal H(ID1) * H(ID2) * H(ID3) ...\n        {\n            uint256 idx = 0;\n            uint256 idy = 0;\n            for (uint i = 0; i < signatures.length; i++) {\n                uint256[2] memory pubKey = registry.getSignerPubkeyByAddress(SignOrder[i]);\n                (pubKey[0], pubKey[1]) = BN256G1.mulPoint([pubKey[0], pubKey[1], randoms[i]]);\n                (idx, idy) = BN256G1.addPoint([idx, idy, pubKey[0], pubKey[1]]);\n            }\n            checkPairingInput.push(idx);\n            checkPairingInput.push(idy);\n            checkPairingInput.push(masterPubKey[1]);\n            checkPairingInput.push(masterPubKey[0]);\n            checkPairingInput.push(masterPubKey[3]);\n            checkPairingInput.push(masterPubKey[2]);\n        }\n\n        // cal H(mi)\n        {\n            uint256 firstX;\n            uint256 firstY;\n            (firstX, firstY) = BN256G1.mulPoint(\n                [BN256G1.GX, BN256G1.GY, uint256(sha256(abi.encodePacked(message)))]\n            );\n            uint256[2] memory first;\n            (first[0], first[1]) = BN256G1.mulPoint([firstX, firstY, randoms[0]]);\n            hashPointSequence.push(first);\n\n            for (uint i = 1; i < SignOrder.length; i++) {\n                uint256 tempX;\n                uint256 tempY;\n                bytes32 res = sha256(abi.encodePacked(message, signatures[i - 1][0], signatures[i - 1][1]));\n                (tempX, tempY) = BN256G1.mulPoint(\n                    [BN256G1.GX, BN256G1.GY, uint256(res)]\n                );\n                uint256[2] memory hashPoint;\n                (hashPoint[0], hashPoint[1]) = BN256G1.mulPoint(\n                    [tempX, tempY, randoms[i]]\n                );\n                hashPointSequence.push(hashPoint);\n            }\n        }\n\n        for (uint i = 0; i < signatures.length; i++) {\n            checkPairingInput.push(hashPointSequence[i][0]);\n            checkPairingInput.push(hashPointSequence[i][1]);\n            checkPairingInput.push(setOfR[i][1]);\n            checkPairingInput.push(setOfR[i][0]);\n            checkPairingInput.push(setOfR[i][3]);\n            checkPairingInput.push(setOfR[i][2]);\n        }\n\n        require(\n            BN256G1.bn256CheckPairingBatch(checkPairingInput),\n            \"sig verify fail\"\n        );\n\n        delete randoms;\n        delete hashPointSequence;\n        delete checkPairingInput;\n    }\n}\n",
  "sourcePath": "/home/w1tness/Code/Crypto/batch-verify-IBE-system/batchverifier/contracts/Sakai.sol",
  "compiler": {
    "name": "solc",
    "version": "0.8.19+commit.7dd6d404.Emscripten.clang"
  },
  "schemaVersion": "3.4.16",
  "updatedAt": "2023-12-30T15:26:05.179Z",
  "networkType": "ethereum",
  "devdoc": {
    "kind": "dev",
    "methods": {},
    "version": 1
  },
  "userdoc": {
    "kind": "user",
    "methods": {},
    "version": 1
  }
}